{
  "contractName": "DiploCoin",
  "abi": [
    {
      "inputs": [],
      "stateMutability": "nonpayable",
      "type": "constructor"
    },
    {
      "anonymous": false,
      "inputs": [
        {
          "indexed": true,
          "internalType": "address",
          "name": "owner",
          "type": "address"
        },
        {
          "indexed": true,
          "internalType": "address",
          "name": "spender",
          "type": "address"
        },
        {
          "indexed": false,
          "internalType": "uint256",
          "name": "value",
          "type": "uint256"
        }
      ],
      "name": "Approval",
      "type": "event"
    },
    {
      "anonymous": false,
      "inputs": [
        {
          "indexed": true,
          "internalType": "address",
          "name": "delegator",
          "type": "address"
        },
        {
          "indexed": true,
          "internalType": "address",
          "name": "fromDelegate",
          "type": "address"
        },
        {
          "indexed": true,
          "internalType": "address",
          "name": "toDelegate",
          "type": "address"
        }
      ],
      "name": "DelegateChanged",
      "type": "event"
    },
    {
      "anonymous": false,
      "inputs": [
        {
          "indexed": true,
          "internalType": "address",
          "name": "delegate",
          "type": "address"
        },
        {
          "indexed": false,
          "internalType": "uint256",
          "name": "previousBalance",
          "type": "uint256"
        },
        {
          "indexed": false,
          "internalType": "uint256",
          "name": "newBalance",
          "type": "uint256"
        }
      ],
      "name": "DelegateVotesChanged",
      "type": "event"
    },
    {
      "anonymous": false,
      "inputs": [
        {
          "indexed": true,
          "internalType": "address",
          "name": "previousOwner",
          "type": "address"
        },
        {
          "indexed": true,
          "internalType": "address",
          "name": "newOwner",
          "type": "address"
        }
      ],
      "name": "OwnershipTransferred",
      "type": "event"
    },
    {
      "anonymous": false,
      "inputs": [
        {
          "indexed": false,
          "internalType": "address",
          "name": "account",
          "type": "address"
        }
      ],
      "name": "Paused",
      "type": "event"
    },
    {
      "anonymous": false,
      "inputs": [
        {
          "indexed": false,
          "internalType": "uint256",
          "name": "id",
          "type": "uint256"
        }
      ],
      "name": "Snapshot",
      "type": "event"
    },
    {
      "anonymous": false,
      "inputs": [
        {
          "indexed": true,
          "internalType": "address",
          "name": "from",
          "type": "address"
        },
        {
          "indexed": true,
          "internalType": "address",
          "name": "to",
          "type": "address"
        },
        {
          "indexed": false,
          "internalType": "uint256",
          "name": "value",
          "type": "uint256"
        }
      ],
      "name": "Transfer",
      "type": "event"
    },
    {
      "anonymous": false,
      "inputs": [
        {
          "indexed": false,
          "internalType": "address",
          "name": "account",
          "type": "address"
        }
      ],
      "name": "Unpaused",
      "type": "event"
    },
    {
      "inputs": [],
      "name": "DOMAIN_SEPARATOR",
      "outputs": [
        {
          "internalType": "bytes32",
          "name": "",
          "type": "bytes32"
        }
      ],
      "stateMutability": "view",
      "type": "function",
      "constant": true
    },
    {
      "inputs": [
        {
          "internalType": "address",
          "name": "owner",
          "type": "address"
        },
        {
          "internalType": "address",
          "name": "spender",
          "type": "address"
        }
      ],
      "name": "allowance",
      "outputs": [
        {
          "internalType": "uint256",
          "name": "",
          "type": "uint256"
        }
      ],
      "stateMutability": "view",
      "type": "function",
      "constant": true
    },
    {
      "inputs": [
        {
          "internalType": "address",
          "name": "spender",
          "type": "address"
        },
        {
          "internalType": "uint256",
          "name": "amount",
          "type": "uint256"
        }
      ],
      "name": "approve",
      "outputs": [
        {
          "internalType": "bool",
          "name": "",
          "type": "bool"
        }
      ],
      "stateMutability": "nonpayable",
      "type": "function"
    },
    {
      "inputs": [
        {
          "internalType": "address",
          "name": "account",
          "type": "address"
        }
      ],
      "name": "balanceOf",
      "outputs": [
        {
          "internalType": "uint256",
          "name": "",
          "type": "uint256"
        }
      ],
      "stateMutability": "view",
      "type": "function",
      "constant": true
    },
    {
      "inputs": [
        {
          "internalType": "address",
          "name": "account",
          "type": "address"
        },
        {
          "internalType": "uint256",
          "name": "snapshotId",
          "type": "uint256"
        }
      ],
      "name": "balanceOfAt",
      "outputs": [
        {
          "internalType": "uint256",
          "name": "",
          "type": "uint256"
        }
      ],
      "stateMutability": "view",
      "type": "function",
      "constant": true
    },
    {
      "inputs": [
        {
          "internalType": "uint256",
          "name": "amount",
          "type": "uint256"
        }
      ],
      "name": "burn",
      "outputs": [],
      "stateMutability": "nonpayable",
      "type": "function"
    },
    {
      "inputs": [
        {
          "internalType": "address",
          "name": "account",
          "type": "address"
        },
        {
          "internalType": "uint256",
          "name": "amount",
          "type": "uint256"
        }
      ],
      "name": "burnFrom",
      "outputs": [],
      "stateMutability": "nonpayable",
      "type": "function"
    },
    {
      "inputs": [
        {
          "internalType": "address",
          "name": "account",
          "type": "address"
        },
        {
          "internalType": "uint32",
          "name": "pos",
          "type": "uint32"
        }
      ],
      "name": "checkpoints",
      "outputs": [
        {
          "components": [
            {
              "internalType": "uint32",
              "name": "fromBlock",
              "type": "uint32"
            },
            {
              "internalType": "uint224",
              "name": "votes",
              "type": "uint224"
            }
          ],
          "internalType": "struct ERC20Votes.Checkpoint",
          "name": "",
          "type": "tuple"
        }
      ],
      "stateMutability": "view",
      "type": "function",
      "constant": true
    },
    {
      "inputs": [],
      "name": "decimals",
      "outputs": [
        {
          "internalType": "uint8",
          "name": "",
          "type": "uint8"
        }
      ],
      "stateMutability": "view",
      "type": "function",
      "constant": true
    },
    {
      "inputs": [
        {
          "internalType": "address",
          "name": "spender",
          "type": "address"
        },
        {
          "internalType": "uint256",
          "name": "subtractedValue",
          "type": "uint256"
        }
      ],
      "name": "decreaseAllowance",
      "outputs": [
        {
          "internalType": "bool",
          "name": "",
          "type": "bool"
        }
      ],
      "stateMutability": "nonpayable",
      "type": "function"
    },
    {
      "inputs": [
        {
          "internalType": "address",
          "name": "delegatee",
          "type": "address"
        }
      ],
      "name": "delegate",
      "outputs": [],
      "stateMutability": "nonpayable",
      "type": "function"
    },
    {
      "inputs": [
        {
          "internalType": "address",
          "name": "delegatee",
          "type": "address"
        },
        {
          "internalType": "uint256",
          "name": "nonce",
          "type": "uint256"
        },
        {
          "internalType": "uint256",
          "name": "expiry",
          "type": "uint256"
        },
        {
          "internalType": "uint8",
          "name": "v",
          "type": "uint8"
        },
        {
          "internalType": "bytes32",
          "name": "r",
          "type": "bytes32"
        },
        {
          "internalType": "bytes32",
          "name": "s",
          "type": "bytes32"
        }
      ],
      "name": "delegateBySig",
      "outputs": [],
      "stateMutability": "nonpayable",
      "type": "function"
    },
    {
      "inputs": [
        {
          "internalType": "address",
          "name": "account",
          "type": "address"
        }
      ],
      "name": "delegates",
      "outputs": [
        {
          "internalType": "address",
          "name": "",
          "type": "address"
        }
      ],
      "stateMutability": "view",
      "type": "function",
      "constant": true
    },
    {
      "inputs": [
        {
          "internalType": "address",
          "name": "token",
          "type": "address"
        },
        {
          "internalType": "uint256",
          "name": "amount",
          "type": "uint256"
        }
      ],
      "name": "flashFee",
      "outputs": [
        {
          "internalType": "uint256",
          "name": "",
          "type": "uint256"
        }
      ],
      "stateMutability": "view",
      "type": "function",
      "constant": true
    },
    {
      "inputs": [
        {
          "internalType": "contract IERC3156FlashBorrower",
          "name": "receiver",
          "type": "address"
        },
        {
          "internalType": "address",
          "name": "token",
          "type": "address"
        },
        {
          "internalType": "uint256",
          "name": "amount",
          "type": "uint256"
        },
        {
          "internalType": "bytes",
          "name": "data",
          "type": "bytes"
        }
      ],
      "name": "flashLoan",
      "outputs": [
        {
          "internalType": "bool",
          "name": "",
          "type": "bool"
        }
      ],
      "stateMutability": "nonpayable",
      "type": "function"
    },
    {
      "inputs": [
        {
          "internalType": "uint256",
          "name": "blockNumber",
          "type": "uint256"
        }
      ],
      "name": "getPastTotalSupply",
      "outputs": [
        {
          "internalType": "uint256",
          "name": "",
          "type": "uint256"
        }
      ],
      "stateMutability": "view",
      "type": "function",
      "constant": true
    },
    {
      "inputs": [
        {
          "internalType": "address",
          "name": "account",
          "type": "address"
        },
        {
          "internalType": "uint256",
          "name": "blockNumber",
          "type": "uint256"
        }
      ],
      "name": "getPastVotes",
      "outputs": [
        {
          "internalType": "uint256",
          "name": "",
          "type": "uint256"
        }
      ],
      "stateMutability": "view",
      "type": "function",
      "constant": true
    },
    {
      "inputs": [
        {
          "internalType": "address",
          "name": "account",
          "type": "address"
        }
      ],
      "name": "getVotes",
      "outputs": [
        {
          "internalType": "uint256",
          "name": "",
          "type": "uint256"
        }
      ],
      "stateMutability": "view",
      "type": "function",
      "constant": true
    },
    {
      "inputs": [
        {
          "internalType": "address",
          "name": "spender",
          "type": "address"
        },
        {
          "internalType": "uint256",
          "name": "addedValue",
          "type": "uint256"
        }
      ],
      "name": "increaseAllowance",
      "outputs": [
        {
          "internalType": "bool",
          "name": "",
          "type": "bool"
        }
      ],
      "stateMutability": "nonpayable",
      "type": "function"
    },
    {
      "inputs": [
        {
          "internalType": "address",
          "name": "token",
          "type": "address"
        }
      ],
      "name": "maxFlashLoan",
      "outputs": [
        {
          "internalType": "uint256",
          "name": "",
          "type": "uint256"
        }
      ],
      "stateMutability": "view",
      "type": "function",
      "constant": true
    },
    {
      "inputs": [],
      "name": "name",
      "outputs": [
        {
          "internalType": "string",
          "name": "",
          "type": "string"
        }
      ],
      "stateMutability": "view",
      "type": "function",
      "constant": true
    },
    {
      "inputs": [
        {
          "internalType": "address",
          "name": "owner",
          "type": "address"
        }
      ],
      "name": "nonces",
      "outputs": [
        {
          "internalType": "uint256",
          "name": "",
          "type": "uint256"
        }
      ],
      "stateMutability": "view",
      "type": "function",
      "constant": true
    },
    {
      "inputs": [
        {
          "internalType": "address",
          "name": "account",
          "type": "address"
        }
      ],
      "name": "numCheckpoints",
      "outputs": [
        {
          "internalType": "uint32",
          "name": "",
          "type": "uint32"
        }
      ],
      "stateMutability": "view",
      "type": "function",
      "constant": true
    },
    {
      "inputs": [],
      "name": "owner",
      "outputs": [
        {
          "internalType": "address",
          "name": "",
          "type": "address"
        }
      ],
      "stateMutability": "view",
      "type": "function",
      "constant": true
    },
    {
      "inputs": [],
      "name": "paused",
      "outputs": [
        {
          "internalType": "bool",
          "name": "",
          "type": "bool"
        }
      ],
      "stateMutability": "view",
      "type": "function",
      "constant": true
    },
    {
      "inputs": [
        {
          "internalType": "address",
          "name": "owner",
          "type": "address"
        },
        {
          "internalType": "address",
          "name": "spender",
          "type": "address"
        },
        {
          "internalType": "uint256",
          "name": "value",
          "type": "uint256"
        },
        {
          "internalType": "uint256",
          "name": "deadline",
          "type": "uint256"
        },
        {
          "internalType": "uint8",
          "name": "v",
          "type": "uint8"
        },
        {
          "internalType": "bytes32",
          "name": "r",
          "type": "bytes32"
        },
        {
          "internalType": "bytes32",
          "name": "s",
          "type": "bytes32"
        }
      ],
      "name": "permit",
      "outputs": [],
      "stateMutability": "nonpayable",
      "type": "function"
    },
    {
      "inputs": [],
      "name": "renounceOwnership",
      "outputs": [],
      "stateMutability": "nonpayable",
      "type": "function"
    },
    {
      "inputs": [],
      "name": "symbol",
      "outputs": [
        {
          "internalType": "string",
          "name": "",
          "type": "string"
        }
      ],
      "stateMutability": "view",
      "type": "function",
      "constant": true
    },
    {
      "inputs": [],
      "name": "totalSupply",
      "outputs": [
        {
          "internalType": "uint256",
          "name": "",
          "type": "uint256"
        }
      ],
      "stateMutability": "view",
      "type": "function",
      "constant": true
    },
    {
      "inputs": [
        {
          "internalType": "uint256",
          "name": "snapshotId",
          "type": "uint256"
        }
      ],
      "name": "totalSupplyAt",
      "outputs": [
        {
          "internalType": "uint256",
          "name": "",
          "type": "uint256"
        }
      ],
      "stateMutability": "view",
      "type": "function",
      "constant": true
    },
    {
      "inputs": [
        {
          "internalType": "address",
          "name": "to",
          "type": "address"
        },
        {
          "internalType": "uint256",
          "name": "amount",
          "type": "uint256"
        }
      ],
      "name": "transfer",
      "outputs": [
        {
          "internalType": "bool",
          "name": "",
          "type": "bool"
        }
      ],
      "stateMutability": "nonpayable",
      "type": "function"
    },
    {
      "inputs": [
        {
          "internalType": "address",
          "name": "from",
          "type": "address"
        },
        {
          "internalType": "address",
          "name": "to",
          "type": "address"
        },
        {
          "internalType": "uint256",
          "name": "amount",
          "type": "uint256"
        }
      ],
      "name": "transferFrom",
      "outputs": [
        {
          "internalType": "bool",
          "name": "",
          "type": "bool"
        }
      ],
      "stateMutability": "nonpayable",
      "type": "function"
    },
    {
      "inputs": [
        {
          "internalType": "address",
          "name": "newOwner",
          "type": "address"
        }
      ],
      "name": "transferOwnership",
      "outputs": [],
      "stateMutability": "nonpayable",
      "type": "function"
    },
    {
      "inputs": [],
      "name": "snapshot",
      "outputs": [],
      "stateMutability": "nonpayable",
      "type": "function"
    },
    {
      "inputs": [],
      "name": "pause",
      "outputs": [],
      "stateMutability": "nonpayable",
      "type": "function"
    },
    {
      "inputs": [],
      "name": "unpause",
      "outputs": [],
      "stateMutability": "nonpayable",
      "type": "function"
    },
    {
      "inputs": [
        {
          "internalType": "address",
          "name": "to",
          "type": "address"
        },
        {
          "internalType": "uint256",
          "name": "amount",
          "type": "uint256"
        }
      ],
      "name": "mint",
      "outputs": [],
      "stateMutability": "nonpayable",
      "type": "function"
    }
  ],
  "bytecode": "0x6101406040523480156200001257600080fd5b50604051806040016040528060078152602001662332b221b7b4b760c91b81525080604051806040016040528060018152602001603160f81b815250604051806040016040528060078152602001662332b221b7b4b760c91b815250604051806040016040528060048152602001634645444360e01b8152508160039080519060200190620000a3929190620009fe565b508051620000b9906004906020840190620009fe565b505050620000d6620000d0620001a260201b60201c565b620001a6565b6009805460ff60a01b19169055815160209283012081519183019190912060e08290526101008190524660a0818152604080517f8b73c3c69bb8fe3d512ecc4cf759cc79239f7b179b0ffacaa9a75d522b39400f818801819052818301969096526060810194909452608080850193909352308483018190528151808603909301835260c09485019091528151919095012090529190915261012052506200019c33620001866012600a62000bad565b62000196906301406f4062000bbe565b620001f8565b62000c67565b3390565b600980546001600160a01b038381166001600160a01b0319831681179093556040519116919082907f8be0079c531659141344cd1fd0a4f28419497f9722a3daafe3b4186f6b6457e090600090a35050565b6200020f82826200021360201b6200122d1760201c565b5050565b6200022a8282620002ca60201b620012ca1760201c565b6001600160e01b036200023e620003c78216565b1115620002ab5760405162461bcd60e51b815260206004820152603060248201527f4552433230566f7465733a20746f74616c20737570706c79207269736b73206f60448201526f766572666c6f77696e6720766f74657360801b60648201526084015b60405180910390fd5b620002c4600e620013bd620003cd60201b1783620003e4565b50505050565b6001600160a01b038216620003225760405162461bcd60e51b815260206004820152601f60248201527f45524332303a206d696e7420746f20746865207a65726f2061646472657373006044820152606401620002a2565b620003306000838362000596565b806002600082825462000344919062000be0565b90915550506001600160a01b038216600090815260208190526040812080548392906200037390849062000be0565b90915550506040518181526001600160a01b038316906000907fddf252ad1be2c89b69c2b068fc378daa952ba7f163c4a11628f55a4df523b3ef9060200160405180910390a36200020f6000838362000609565b60025490565b6000620003db828462000be0565b90505b92915050565b8254600090819080156200043657856200040060018362000bfb565b8154811062000413576200041362000c15565b60009182526020909120015464010000000090046001600160e01b031662000439565b60005b6001600160e01b031692506200045083858760201c565b915060008111801562000494575043866200046d60018462000bfb565b8154811062000480576200048062000c15565b60009182526020909120015463ffffffff16145b156200050857620004b0826200062160201b620013c91760201c565b86620004be60018462000bfb565b81548110620004d157620004d162000c15565b9060005260206000200160000160046101000a8154816001600160e01b0302191690836001600160e01b031602179055506200058d565b8560405180604001604052806200052a436200069060201b6200144c1760201c565b63ffffffff1681526020016200054b856200062160201b620013c91760201c565b6001600160e01b0390811690915282546001810184556000938452602093849020835194909301519091166401000000000263ffffffff909316929092179101555b50935093915050565b620005aa600954600160a01b900460ff1690565b15620005ec5760405162461bcd60e51b815260206004820152601060248201526f14185d5cd8589b194e881c185d5cd95960821b6044820152606401620002a2565b62000604838383620006f760201b620014c81760201c565b505050565b620006048383836200076360201b620015151760201c565b60006001600160e01b038211156200068c5760405162461bcd60e51b815260206004820152602760248201527f53616665436173743a2076616c756520646f65736e27742066697420696e20326044820152663234206269747360c81b6064820152608401620002a2565b5090565b600063ffffffff8211156200068c5760405162461bcd60e51b815260206004820152602660248201527f53616665436173743a2076616c756520646f65736e27742066697420696e203360448201526532206269747360d01b6064820152608401620002a2565b6200070f8383836200060460201b620014e71760201c565b6001600160a01b03831662000733576200072982620007af565b62000604620007e7565b6001600160a01b0382166200074d576200072983620007af565b6200075883620007af565b6200060482620007af565b6200077b8383836200060460201b620014e71760201c565b6001600160a01b038381166000908152600c60205260408082205485841683529120546200060492918216911683620007f9565b6001600160a01b03811660009081526005602090815260408083209183905290912054620007e4919062000934565b62000934565b50565b620007f76006620007de60025490565b565b816001600160a01b0316836001600160a01b0316141580156200081c5750600081115b1562000604576001600160a01b03831615620008a9576001600160a01b0383166000908152600d602090815260408220829162000866919062000983901b620015471785620003e4565b91509150846001600160a01b03166000805160206200392683398151915283836040516200089e929190918252602082015260400190565b60405180910390a250505b6001600160a01b0382161562000604576001600160a01b0382166000908152600d6020908152604082208291620008ed9190620003cd901b620013bd1785620003e4565b91509150836001600160a01b031660008051602062003926833981519152838360405162000925929190918252602082015260400190565b60405180910390a25050505050565b60006200094062000991565b9050806200094e84620009af565b101562000604578254600180820185556000858152602080822090930193909355938401805494850181558252902090910155565b6000620003db828462000bfb565b6000620009aa6008620009fa60201b620015531760201c565b905090565b80546000908103620009c357506000919050565b81548290620009d59060019062000bfb565b81548110620009e857620009e862000c15565b90600052602060002001549050919050565b5490565b82805462000a0c9062000c2b565b90600052602060002090601f01602090048101928262000a30576000855562000a7b565b82601f1062000a4b57805160ff191683800117855562000a7b565b8280016001018555821562000a7b579182015b8281111562000a7b57825182559160200191906001019062000a5e565b506200068c9291505b808211156200068c576000815560010162000a84565b634e487b7160e01b600052601160045260246000fd5b600181815b8085111562000af157816000190482111562000ad55762000ad562000a9a565b8085161562000ae357918102915b93841c939080029062000ab5565b509250929050565b60008262000b0a57506001620003de565b8162000b1957506000620003de565b816001811462000b32576002811462000b3d5762000b5d565b6001915050620003de565b60ff84111562000b515762000b5162000a9a565b50506001821b620003de565b5060208310610133831016604e8410600b841016171562000b82575081810a620003de565b62000b8e838362000ab0565b806000190482111562000ba55762000ba562000a9a565b029392505050565b6000620003db60ff84168362000af9565b600081600019048311821515161562000bdb5762000bdb62000a9a565b500290565b6000821982111562000bf65762000bf662000a9a565b500190565b60008282101562000c105762000c1062000a9a565b500390565b634e487b7160e01b600052603260045260246000fd5b600181811c9082168062000c4057607f821691505b60208210810362000c6157634e487b7160e01b600052602260045260246000fd5b50919050565b60805160a05160c05160e0516101005161012051612c6f62000cb7600039600061199f015260006119ee015260006119c9015260006119220152600061194c015260006119760152612c6f6000f3fe608060405234801561001057600080fd5b50600436106102775760003560e01c806370a0823111610160578063981b24d0116100d8578063d505accf1161008c578063dd62ed3e11610071578063dd62ed3e14610531578063f1127ed81461056a578063f2fde38b146105a757600080fd5b8063d505accf1461050b578063d9d98ce41461051e57600080fd5b8063a457c2d7116100bd578063a457c2d7146104d2578063a9059cbb146104e5578063c3cda520146104f857600080fd5b8063981b24d0146104ac5780639ab24eb0146104bf57600080fd5b80638456cb591161012f5780638e539e8c116101145780638e539e8c1461048957806395d89b411461049c5780639711715a146104a457600080fd5b80638456cb59146104705780638da5cb5b1461047857600080fd5b806370a0823114610419578063715018a61461044257806379cc67901461044a5780637ecebe001461045d57600080fd5b806340c10f19116101f35780635c19a95c116101c25780635cffe9de116101a75780635cffe9de146103cb578063613255ab146103de5780636fcfff45146103f157600080fd5b80635c19a95c146103a65780635c975abb146103b957600080fd5b806340c10f191461032957806342966c681461033c5780634ee2cd7e1461034f578063587cde1e1461036257600080fd5b8063313ce5671161024a578063395093511161022f57806339509351146102f95780633a46b1a81461030c5780633f4ba83a1461031f57600080fd5b8063313ce567146102e25780633644e515146102f157600080fd5b806306fdde031461027c578063095ea7b31461029a57806318160ddd146102bd57806323b872dd146102cf575b600080fd5b6102846105ba565b6040516102919190612809565b60405180910390f35b6102ad6102a8366004612873565b61064c565b6040519015158152602001610291565b6002545b604051908152602001610291565b6102ad6102dd36600461289f565b610666565b60405160128152602001610291565b6102c161068a565b6102ad610307366004612873565b610699565b6102c161031a366004612873565b6106d8565b610327610757565b005b610327610337366004612873565b6107bb565b61032761034a3660046128e0565b610823565b6102c161035d366004612873565b610830565b61038e6103703660046128f9565b6001600160a01b039081166000908152600c60205260409020541690565b6040516001600160a01b039091168152602001610291565b6103276103b43660046128f9565b610889565b600954600160a01b900460ff166102ad565b6102ad6103d9366004612916565b610893565b6102c16103ec3660046128f9565b610a53565b6104046103ff3660046128f9565b610a7b565b60405163ffffffff9091168152602001610291565b6102c16104273660046128f9565b6001600160a01b031660009081526020819052604090205490565b610327610a9d565b610327610458366004612873565b610b01565b6102c161046b3660046128f9565b610b16565b610327610b34565b6009546001600160a01b031661038e565b6102c16104973660046128e0565b610b96565b610284610bf2565b610327610c01565b6102c16104ba3660046128e0565b610c63565b6102c16104cd3660046128f9565b610c8e565b6102ad6104e0366004612873565b610d15565b6102ad6104f3366004612873565b610dbf565b6103276105063660046129c6565b610dcd565b610327610519366004612a20565b610f03565b6102c161052c366004612873565b611067565b6102c161053f366004612a8e565b6001600160a01b03918216600090815260016020908152604080832093909416825291909152205490565b61057d610578366004612ac7565b6110ca565b60408051825163ffffffff1681526020928301516001600160e01b03169281019290925201610291565b6103276105b53660046128f9565b61114e565b6060600380546105c990612afe565b80601f01602080910402602001604051908101604052809291908181526020018280546105f590612afe565b80156106425780601f1061061757610100808354040283529160200191610642565b820191906000526020600020905b81548152906001019060200180831161062557829003601f168201915b5050505050905090565b60003361065a818585611557565b60019150505b92915050565b60003361067485828561167b565b61067f858585611707565b506001949350505050565b6000610694611915565b905090565b3360008181526001602090815260408083206001600160a01b038716845290915281205490919061065a90829086906106d3908790612b48565b611557565b600043821061072e5760405162461bcd60e51b815260206004820152601f60248201527f4552433230566f7465733a20626c6f636b206e6f7420796574206d696e65640060448201526064015b60405180910390fd5b6001600160a01b0383166000908152600d602052604090206107509083611a3c565b9392505050565b6009546001600160a01b031633146107b15760405162461bcd60e51b815260206004820181905260248201527f4f776e61626c653a2063616c6c6572206973206e6f7420746865206f776e65726044820152606401610725565b6107b9611af9565b565b6009546001600160a01b031633146108155760405162461bcd60e51b815260206004820181905260248201527f4f776e61626c653a2063616c6c6572206973206e6f7420746865206f776e65726044820152606401610725565b61081f8282611b9f565b5050565b61082d3382611ba9565b50565b6001600160a01b038216600090815260056020526040812081908190610857908590611bb3565b915091508161087e576001600160a01b038516600090815260208190526040902054610880565b805b95945050505050565b61082d3382611cb0565b600061089e85610a53565b8411156109135760405162461bcd60e51b815260206004820152602b60248201527f4552433230466c6173684d696e743a20616d6f756e742065786365656473206d60448201527f6178466c6173684c6f616e0000000000000000000000000000000000000000006064820152608401610725565b600061091f8686611067565b905061092b8786611b9f565b6040516323e30c8b60e01b81527f439148f0bbc682ca079e46d6e2c2f0c1e3b820f1a291b069d8882abf8cf18dd9906001600160a01b038916906323e30c8b906109839033908b908b9088908c908c90600401612b60565b6020604051808303816000875af11580156109a2573d6000803e3d6000fd5b505050506040513d601f19601f820116820180604052508101906109c69190612bbb565b14610a1f5760405162461bcd60e51b8152602060048201526024808201527f4552433230466c6173684d696e743a20696e76616c69642072657475726e2076604482015263616c756560e01b6064820152608401610725565b610a338730610a2e8489612b48565b61167b565b610a4687610a418388612b48565b611ba9565b5060019695505050505050565b60006001600160a01b0382163014610a6c576000610660565b60025461066090600019612bd4565b6001600160a01b0381166000908152600d60205260408120546106609061144c565b6009546001600160a01b03163314610af75760405162461bcd60e51b815260206004820181905260248201527f4f776e61626c653a2063616c6c6572206973206e6f7420746865206f776e65726044820152606401610725565b6107b96000611d36565b610b0c82338361167b565b61081f8282611ba9565b6001600160a01b0381166000908152600a6020526040812054610660565b6009546001600160a01b03163314610b8e5760405162461bcd60e51b815260206004820181905260248201527f4f776e61626c653a2063616c6c6572206973206e6f7420746865206f776e65726044820152606401610725565b6107b9611d95565b6000438210610be75760405162461bcd60e51b815260206004820152601f60248201527f4552433230566f7465733a20626c6f636b206e6f7420796574206d696e6564006044820152606401610725565b610660600e83611a3c565b6060600480546105c990612afe565b6009546001600160a01b03163314610c5b5760405162461bcd60e51b815260206004820181905260248201527f4f776e61626c653a2063616c6c6572206973206e6f7420746865206f776e65726044820152606401610725565b61082d611e1d565b6000806000610c73846006611bb3565b9150915081610c8457600254610c86565b805b949350505050565b6001600160a01b0381166000908152600d60205260408120548015610d02576001600160a01b0383166000908152600d60205260409020610cd0600183612bd4565b81548110610ce057610ce0612beb565b60009182526020909120015464010000000090046001600160e01b0316610d05565b60005b6001600160e01b03169392505050565b3360008181526001602090815260408083206001600160a01b038716845290915281205490919083811015610db25760405162461bcd60e51b815260206004820152602560248201527f45524332303a2064656372656173656420616c6c6f77616e63652062656c6f7760448201527f207a65726f0000000000000000000000000000000000000000000000000000006064820152608401610725565b61067f8286868403611557565b60003361065a818585611707565b83421115610e1d5760405162461bcd60e51b815260206004820152601d60248201527f4552433230566f7465733a207369676e617475726520657870697265640000006044820152606401610725565b604080517fe48329057bfd03d55e49b547132e39cffd9c1820ad7b9d4c5307691425d15adf60208201526001600160a01b038816918101919091526060810186905260808101859052600090610e9790610e8f9060a00160405160208183030381529060405280519060200120611e77565b858585611ec5565b9050610ea281611eed565b8614610ef05760405162461bcd60e51b815260206004820152601960248201527f4552433230566f7465733a20696e76616c6964206e6f6e6365000000000000006044820152606401610725565b610efa8188611cb0565b50505050505050565b83421115610f535760405162461bcd60e51b815260206004820152601d60248201527f45524332305065726d69743a206578706972656420646561646c696e650000006044820152606401610725565b60007f6e71edae12b1b97f4d1f60370fef10105fa2faae0126114a169c64845d6126c9888888610f828c611eed565b6040805160208101969096526001600160a01b0394851690860152929091166060840152608083015260a082015260c0810186905260e0016040516020818303038152906040528051906020012090506000610fdd82611e77565b90506000610fed82878787611ec5565b9050896001600160a01b0316816001600160a01b0316146110505760405162461bcd60e51b815260206004820152601e60248201527f45524332305065726d69743a20696e76616c6964207369676e617475726500006044820152606401610725565b61105b8a8a8a611557565b50505050505050505050565b60006001600160a01b03831630146110c15760405162461bcd60e51b815260206004820152601b60248201527f4552433230466c6173684d696e743a2077726f6e6720746f6b656e00000000006044820152606401610725565b50600092915050565b60408051808201909152600080825260208201526001600160a01b0383166000908152600d60205260409020805463ffffffff841690811061110e5761110e612beb565b60009182526020918290206040805180820190915291015463ffffffff8116825264010000000090046001600160e01b0316918101919091529392505050565b6009546001600160a01b031633146111a85760405162461bcd60e51b815260206004820181905260248201527f4f776e61626c653a2063616c6c6572206973206e6f7420746865206f776e65726044820152606401610725565b6001600160a01b0381166112245760405162461bcd60e51b815260206004820152602660248201527f4f776e61626c653a206e6577206f776e657220697320746865207a65726f206160448201527f64647265737300000000000000000000000000000000000000000000000000006064820152608401610725565b61082d81611d36565b61123782826112ca565b6002546001600160e01b0310156112b65760405162461bcd60e51b815260206004820152603060248201527f4552433230566f7465733a20746f74616c20737570706c79207269736b73206f60448201527f766572666c6f77696e6720766f746573000000000000000000000000000000006064820152608401610725565b6112c4600e6113bd83611f15565b50505050565b6001600160a01b0382166113205760405162461bcd60e51b815260206004820152601f60248201527f45524332303a206d696e7420746f20746865207a65726f2061646472657373006044820152606401610725565b61132c6000838361208e565b806002600082825461133e9190612b48565b90915550506001600160a01b0382166000908152602081905260408120805483929061136b908490612b48565b90915550506040518181526001600160a01b038316906000907fddf252ad1be2c89b69c2b068fc378daa952ba7f163c4a11628f55a4df523b3ef9060200160405180910390a361081f600083836120e6565b60006107508284612b48565b60006001600160e01b038211156114485760405162461bcd60e51b815260206004820152602760248201527f53616665436173743a2076616c756520646f65736e27742066697420696e203260448201527f32342062697473000000000000000000000000000000000000000000000000006064820152608401610725565b5090565b600063ffffffff8211156114485760405162461bcd60e51b815260206004820152602660248201527f53616665436173743a2076616c756520646f65736e27742066697420696e203360448201527f32206269747300000000000000000000000000000000000000000000000000006064820152608401610725565b6001600160a01b0383166114ec576114df826120f1565b6114e7612123565b505050565b6001600160a01b038216611503576114df836120f1565b61150c836120f1565b6114e7826120f1565b6001600160a01b038381166000908152600c60205260408082205485841683529120546114e792918216911683612131565b60006107508284612bd4565b5490565b6001600160a01b0383166115b95760405162461bcd60e51b8152602060048201526024808201527f45524332303a20617070726f76652066726f6d20746865207a65726f206164646044820152637265737360e01b6064820152608401610725565b6001600160a01b03821661161a5760405162461bcd60e51b815260206004820152602260248201527f45524332303a20617070726f766520746f20746865207a65726f206164647265604482015261737360f01b6064820152608401610725565b6001600160a01b0383811660008181526001602090815260408083209487168084529482529182902085905590518481527f8c5be1e5ebec7d5bd14f71427d1e84f3dd0314c0f7b2291e5b200ac8c7c3b925910160405180910390a3505050565b6001600160a01b0383811660009081526001602090815260408083209386168352929052205460001981146112c457818110156116fa5760405162461bcd60e51b815260206004820152601d60248201527f45524332303a20696e73756666696369656e7420616c6c6f77616e63650000006044820152606401610725565b6112c48484848403611557565b6001600160a01b0383166117835760405162461bcd60e51b815260206004820152602560248201527f45524332303a207472616e736665722066726f6d20746865207a65726f20616460448201527f64726573730000000000000000000000000000000000000000000000000000006064820152608401610725565b6001600160a01b0382166117e55760405162461bcd60e51b815260206004820152602360248201527f45524332303a207472616e7366657220746f20746865207a65726f206164647260448201526265737360e81b6064820152608401610725565b6117f083838361208e565b6001600160a01b0383166000908152602081905260409020548181101561187f5760405162461bcd60e51b815260206004820152602660248201527f45524332303a207472616e7366657220616d6f756e742065786365656473206260448201527f616c616e636500000000000000000000000000000000000000000000000000006064820152608401610725565b6001600160a01b038085166000908152602081905260408082208585039055918516815290812080548492906118b6908490612b48565b92505081905550826001600160a01b0316846001600160a01b03167fddf252ad1be2c89b69c2b068fc378daa952ba7f163c4a11628f55a4df523b3ef8460405161190291815260200190565b60405180910390a36112c48484846120e6565b6000306001600160a01b037f00000000000000000000000000000000000000000000000000000000000000001614801561196e57507f000000000000000000000000000000000000000000000000000000000000000046145b1561199857507f000000000000000000000000000000000000000000000000000000000000000090565b50604080517f00000000000000000000000000000000000000000000000000000000000000006020808301919091527f0000000000000000000000000000000000000000000000000000000000000000828401527f000000000000000000000000000000000000000000000000000000000000000060608301524660808301523060a0808401919091528351808403909101815260c0909201909252805191012090565b8154600090815b81811015611aa0576000611a57828461226e565b905084868281548110611a6c57611a6c612beb565b60009182526020909120015463ffffffff161115611a8c57809250611a9a565b611a97816001612b48565b91505b50611a43565b8115611ae45784611ab2600184612bd4565b81548110611ac257611ac2612beb565b60009182526020909120015464010000000090046001600160e01b0316611ae7565b60005b6001600160e01b031695945050505050565b600954600160a01b900460ff16611b525760405162461bcd60e51b815260206004820152601460248201527f5061757361626c653a206e6f74207061757365640000000000000000000000006044820152606401610725565b6009805460ff60a01b191690557f5db9ee0a495bf2e6ff9c91a7834c1ba4fdd244a5e8aa4e537bd38aeae4b073aa335b6040516001600160a01b03909116815260200160405180910390a1565b61081f828261122d565b61081f8282612289565b60008060008411611c065760405162461bcd60e51b815260206004820152601660248201527f4552433230536e617073686f743a2069642069732030000000000000000000006044820152606401610725565b611c0e6122a1565b841115611c5d5760405162461bcd60e51b815260206004820152601d60248201527f4552433230536e617073686f743a206e6f6e6578697374656e742069640000006044820152606401610725565b6000611c6984866122ac565b84549091508103611c81576000809250925050611ca9565b6001846001018281548110611c9857611c98612beb565b906000526020600020015492509250505b9250929050565b6001600160a01b038281166000818152600c602081815260408084208054858452828620549490935287871673ffffffffffffffffffffffffffffffffffffffff198416811790915590519190951694919391928592917f3134e8a2e6d97e929a7e54011ea5485d7d196dd5f0ba4d4ef95803e8e3fc257f9190a46112c4828483612131565b600980546001600160a01b0383811673ffffffffffffffffffffffffffffffffffffffff19831681179093556040519116919082907f8be0079c531659141344cd1fd0a4f28419497f9722a3daafe3b4186f6b6457e090600090a35050565b600954600160a01b900460ff1615611de25760405162461bcd60e51b815260206004820152601060248201526f14185d5cd8589b194e881c185d5cd95960821b6044820152606401610725565b6009805460ff60a01b1916600160a01b1790557f62e78cea01bee320cd4e420270b5ea74000d11b0c9f74754ebdbfc544b05a258611b823390565b6000611e2d600880546001019055565b6000611e376122a1565b90507f8030e83b04d87bef53480e26263266d6ca66863aa8506aca6f2559d18aa1cb6781604051611e6a91815260200190565b60405180910390a1919050565b6000610660611e84611915565b8360405161190160f01b6020820152602281018390526042810182905260009060620160405160208183030381529060405280519060200120905092915050565b6000806000611ed687878787612371565b91509150611ee38161245e565b5095945050505050565b6001600160a01b0381166000908152600a602052604090208054600181018255905b50919050565b825460009081908015611f605785611f2e600183612bd4565b81548110611f3e57611f3e612beb565b60009182526020909120015464010000000090046001600160e01b0316611f63565b60005b6001600160e01b03169250611f7c83858763ffffffff16565b9150600081118015611fba57504386611f96600184612bd4565b81548110611fa657611fa6612beb565b60009182526020909120015463ffffffff16145b1561201a57611fc8826113c9565b86611fd4600184612bd4565b81548110611fe457611fe4612beb565b9060005260206000200160000160046101000a8154816001600160e01b0302191690836001600160e01b03160217905550612085565b85604051806040016040528061202f4361144c565b63ffffffff168152602001612043856113c9565b6001600160e01b0390811690915282546001810184556000938452602093849020835194909301519091166401000000000263ffffffff909316929092179101555b50935093915050565b600954600160a01b900460ff16156120db5760405162461bcd60e51b815260206004820152601060248201526f14185d5cd8589b194e881c185d5cd95960821b6044820152606401610725565b6114e78383836114c8565b6114e7838383611515565b6001600160a01b0381166000908152600560209081526040808320918390529091205461082d9190612614565b612614565b6107b9600661211e60025490565b816001600160a01b0316836001600160a01b0316141580156121535750600081115b156114e7576001600160a01b038316156121e1576001600160a01b0383166000908152600d60205260408120819061218e9061154785611f15565b91509150846001600160a01b03167fdec2bacdd2f05b59de34da9b523dff8be42e5e38e818c82fdb0bae774387a72483836040516121d6929190918252602082015260400190565b60405180910390a250505b6001600160a01b038216156114e7576001600160a01b0382166000908152600d602052604081208190612217906113bd85611f15565b91509150836001600160a01b03167fdec2bacdd2f05b59de34da9b523dff8be42e5e38e818c82fdb0bae774387a724838360405161225f929190918252602082015260400190565b60405180910390a25050505050565b600061227d6002848418612c01565b61075090848416612b48565b612293828261265e565b6112c4600e61154783611f15565b600061069460085490565b815460009081036122bf57506000610660565b82546000905b8082101561231b5760006122d9838361226e565b9050848682815481106122ee576122ee612beb565b9060005260206000200154111561230757809150612315565b612312816001612b48565b92505b506122c5565b60008211801561235057508385612333600185612bd4565b8154811061234357612343612beb565b9060005260206000200154145b1561236957612360600183612bd4565b92505050610660565b509050610660565b6000807f7fffffffffffffffffffffffffffffff5d576e7357a4501ddfe92f46681b20a08311156123a85750600090506003612455565b8460ff16601b141580156123c057508460ff16601c14155b156123d15750600090506004612455565b6040805160008082526020820180845289905260ff881692820192909252606081018690526080810185905260019060a0016020604051602081039080840390855afa158015612425573d6000803e3d6000fd5b5050604051601f1901519150506001600160a01b03811661244e57600060019250925050612455565b9150600090505b94509492505050565b600081600481111561247257612472612c23565b0361247a5750565b600181600481111561248e5761248e612c23565b036124db5760405162461bcd60e51b815260206004820152601860248201527f45434453413a20696e76616c6964207369676e617475726500000000000000006044820152606401610725565b60028160048111156124ef576124ef612c23565b0361253c5760405162461bcd60e51b815260206004820152601f60248201527f45434453413a20696e76616c6964207369676e6174757265206c656e677468006044820152606401610725565b600381600481111561255057612550612c23565b036125a85760405162461bcd60e51b815260206004820152602260248201527f45434453413a20696e76616c6964207369676e6174757265202773272076616c604482015261756560f01b6064820152608401610725565b60048160048111156125bc576125bc612c23565b0361082d5760405162461bcd60e51b815260206004820152602260248201527f45434453413a20696e76616c6964207369676e6174757265202776272076616c604482015261756560f01b6064820152608401610725565b600061261e6122a1565b90508061262a846127bf565b10156114e7578254600180820185556000858152602080822090930193909355938401805494850181558252902090910155565b6001600160a01b0382166126be5760405162461bcd60e51b815260206004820152602160248201527f45524332303a206275726e2066726f6d20746865207a65726f206164647265736044820152607360f81b6064820152608401610725565b6126ca8260008361208e565b6001600160a01b0382166000908152602081905260409020548181101561273e5760405162461bcd60e51b815260206004820152602260248201527f45524332303a206275726e20616d6f756e7420657863656564732062616c616e604482015261636560f01b6064820152608401610725565b6001600160a01b038316600090815260208190526040812083830390556002805484929061276d908490612bd4565b90915550506040518281526000906001600160a01b038516907fddf252ad1be2c89b69c2b068fc378daa952ba7f163c4a11628f55a4df523b3ef9060200160405180910390a36114e7836000846120e6565b805460009081036127d257506000919050565b815482906127e290600190612bd4565b815481106127f2576127f2612beb565b90600052602060002001549050919050565b919050565b600060208083528351808285015260005b818110156128365785810183015185820160400152820161281a565b81811115612848576000604083870101525b50601f01601f1916929092016040019392505050565b6001600160a01b038116811461082d57600080fd5b6000806040838503121561288657600080fd5b82356128918161285e565b946020939093013593505050565b6000806000606084860312156128b457600080fd5b83356128bf8161285e565b925060208401356128cf8161285e565b929592945050506040919091013590565b6000602082840312156128f257600080fd5b5035919050565b60006020828403121561290b57600080fd5b81356107508161285e565b60008060008060006080868803121561292e57600080fd5b85356129398161285e565b945060208601356129498161285e565b935060408601359250606086013567ffffffffffffffff8082111561296d57600080fd5b818801915088601f83011261298157600080fd5b81358181111561299057600080fd5b8960208285010111156129a257600080fd5b9699959850939650602001949392505050565b803560ff8116811461280457600080fd5b60008060008060008060c087890312156129df57600080fd5b86356129ea8161285e565b95506020870135945060408701359350612a06606088016129b5565b92506080870135915060a087013590509295509295509295565b600080600080600080600060e0888a031215612a3b57600080fd5b8735612a468161285e565b96506020880135612a568161285e565b95506040880135945060608801359350612a72608089016129b5565b925060a0880135915060c0880135905092959891949750929550565b60008060408385031215612aa157600080fd5b8235612aac8161285e565b91506020830135612abc8161285e565b809150509250929050565b60008060408385031215612ada57600080fd5b8235612ae58161285e565b9150602083013563ffffffff81168114612abc57600080fd5b600181811c90821680612b1257607f821691505b602082108103611f0f57634e487b7160e01b600052602260045260246000fd5b634e487b7160e01b600052601160045260246000fd5b60008219821115612b5b57612b5b612b32565b500190565b60006001600160a01b03808916835280881660208401525085604083015284606083015260a060808301528260a0830152828460c0840137600060c0848401015260c0601f19601f8501168301019050979650505050505050565b600060208284031215612bcd57600080fd5b5051919050565b600082821015612be657612be6612b32565b500390565b634e487b7160e01b600052603260045260246000fd5b600082612c1e57634e487b7160e01b600052601260045260246000fd5b500490565b634e487b7160e01b600052602160045260246000fdfea2646970667358221220e22fbdbdd680fa9b3080864d70724595c9add5d071dfee16b567b8f97f5d396e64736f6c634300080e0033dec2bacdd2f05b59de34da9b523dff8be42e5e38e818c82fdb0bae774387a724",
  "immutableReferences": {
    "3187": [
      {
        "length": 32,
        "start": 6518
      }
    ],
    "3189": [
      {
        "length": 32,
        "start": 6476
      }
    ],
    "3191": [
      {
        "length": 32,
        "start": 6434
      }
    ],
    "3193": [
      {
        "length": 32,
        "start": 6601
      }
    ],
    "3195": [
      {
        "length": 32,
        "start": 6638
      }
    ],
    "3197": [
      {
        "length": 32,
        "start": 6559
      }
    ]
  },
  "source": "// SPDX-License-Identifier: MIT\npragma solidity ^0.8.4;\n\nimport \"@openzeppelin/contracts/token/ERC20/ERC20.sol\";\nimport \"@openzeppelin/contracts/token/ERC20/extensions/ERC20Burnable.sol\";\nimport \"@openzeppelin/contracts/token/ERC20/extensions/ERC20Snapshot.sol\";\nimport \"@openzeppelin/contracts/access/Ownable.sol\";\nimport \"@openzeppelin/contracts/security/Pausable.sol\";\nimport \"@openzeppelin/contracts/token/ERC20/extensions/draft-ERC20Permit.sol\";\nimport \"@openzeppelin/contracts/token/ERC20/extensions/ERC20Votes.sol\";\nimport \"@openzeppelin/contracts/token/ERC20/extensions/ERC20FlashMint.sol\";\n\ncontract DiploCoin is ERC20, ERC20Burnable, ERC20Snapshot, Ownable, Pausable, ERC20Permit, ERC20Votes, ERC20FlashMint {\n    constructor() ERC20(\"FedCoin\", \"FEDC\") ERC20Permit(\"FedCoin\") {\n        _mint(msg.sender, 21000000 * 10 ** decimals());\n    }\n\n    function snapshot() public onlyOwner {\n        _snapshot();\n    }\n\n    function pause() public onlyOwner {\n        _pause();\n    }\n\n    function unpause() public onlyOwner {\n        _unpause();\n    }\n\n    function mint(address to, uint256 amount) public onlyOwner {\n        _mint(to, amount);\n    }\n\n    function _beforeTokenTransfer(address from, address to, uint256 amount)\n        internal\n        whenNotPaused\n        override(ERC20, ERC20Snapshot)\n    {\n        super._beforeTokenTransfer(from, to, amount);\n    }\n\n    // The following functions are overrides required by Solidity.\n\n    function _afterTokenTransfer(address from, address to, uint256 amount)\n        internal\n        override(ERC20, ERC20Votes)\n    {\n        super._afterTokenTransfer(from, to, amount);\n    }\n\n    function _mint(address to, uint256 amount)\n        internal\n        override(ERC20, ERC20Votes)\n    {\n        super._mint(to, amount);\n    }\n\n    function _burn(address account, uint256 amount)\n        internal\n        override(ERC20, ERC20Votes)\n    {\n        super._burn(account, amount);\n    }\n}\n",
  "sourcePath": "/home/fugue/Dev/Truffle/zeppelin/contracts/DiploCoin.sol",
  "compiler": {
    "name": "solc",
    "version": "0.8.14+commit.80d49f37.Emscripten.clang"
  },
  "schemaVersion": "3.4.7",
  "updatedAt": "2022-08-28T19:25:14.776Z",
  "networkType": "ethereum",
  "devdoc": {
    "kind": "dev",
    "methods": {
      "DOMAIN_SEPARATOR()": {
        "details": "See {IERC20Permit-DOMAIN_SEPARATOR}."
      },
      "allowance(address,address)": {
        "details": "See {IERC20-allowance}."
      },
      "approve(address,uint256)": {
        "details": "See {IERC20-approve}. NOTE: If `amount` is the maximum `uint256`, the allowance is not updated on `transferFrom`. This is semantically equivalent to an infinite approval. Requirements: - `spender` cannot be the zero address."
      },
      "balanceOf(address)": {
        "details": "See {IERC20-balanceOf}."
      },
      "balanceOfAt(address,uint256)": {
        "details": "Retrieves the balance of `account` at the time `snapshotId` was created."
      },
      "burn(uint256)": {
        "details": "Destroys `amount` tokens from the caller. See {ERC20-_burn}."
      },
      "burnFrom(address,uint256)": {
        "details": "Destroys `amount` tokens from `account`, deducting from the caller's allowance. See {ERC20-_burn} and {ERC20-allowance}. Requirements: - the caller must have allowance for ``accounts``'s tokens of at least `amount`."
      },
      "checkpoints(address,uint32)": {
        "details": "Get the `pos`-th checkpoint for `account`."
      },
      "decimals()": {
        "details": "Returns the number of decimals used to get its user representation. For example, if `decimals` equals `2`, a balance of `505` tokens should be displayed to a user as `5.05` (`505 / 10 ** 2`). Tokens usually opt for a value of 18, imitating the relationship between Ether and Wei. This is the value {ERC20} uses, unless this function is overridden; NOTE: This information is only used for _display_ purposes: it in no way affects any of the arithmetic of the contract, including {IERC20-balanceOf} and {IERC20-transfer}."
      },
      "decreaseAllowance(address,uint256)": {
        "details": "Atomically decreases the allowance granted to `spender` by the caller. This is an alternative to {approve} that can be used as a mitigation for problems described in {IERC20-approve}. Emits an {Approval} event indicating the updated allowance. Requirements: - `spender` cannot be the zero address. - `spender` must have allowance for the caller of at least `subtractedValue`."
      },
      "delegate(address)": {
        "details": "Delegate votes from the sender to `delegatee`."
      },
      "delegateBySig(address,uint256,uint256,uint8,bytes32,bytes32)": {
        "details": "Delegates votes from signer to `delegatee`"
      },
      "delegates(address)": {
        "details": "Get the address `account` is currently delegating to."
      },
      "flashFee(address,uint256)": {
        "details": "Returns the fee applied when doing flash loans. By default this implementation has 0 fees. This function can be overloaded to make the flash loan mechanism deflationary.",
        "params": {
          "amount": "The amount of tokens to be loaned.",
          "token": "The token to be flash loaned."
        },
        "returns": {
          "_0": "The fees applied to the corresponding flash loan."
        }
      },
      "flashLoan(address,address,uint256,bytes)": {
        "details": "Performs a flash loan. New tokens are minted and sent to the `receiver`, who is required to implement the {IERC3156FlashBorrower} interface. By the end of the flash loan, the receiver is expected to own amount + fee tokens and have them approved back to the token contract itself so they can be burned.",
        "params": {
          "amount": "The amount of tokens to be loaned.",
          "data": "An arbitrary datafield that is passed to the receiver.",
          "receiver": "The receiver of the flash loan. Should implement the {IERC3156FlashBorrower.onFlashLoan} interface.",
          "token": "The token to be flash loaned. Only `address(this)` is supported."
        },
        "returns": {
          "_0": "`true` if the flash loan was successful."
        }
      },
      "getPastTotalSupply(uint256)": {
        "details": "Retrieve the `totalSupply` at the end of `blockNumber`. Note, this value is the sum of all balances. It is but NOT the sum of all the delegated votes! Requirements: - `blockNumber` must have been already mined"
      },
      "getPastVotes(address,uint256)": {
        "details": "Retrieve the number of votes for `account` at the end of `blockNumber`. Requirements: - `blockNumber` must have been already mined"
      },
      "getVotes(address)": {
        "details": "Gets the current votes balance for `account`"
      },
      "increaseAllowance(address,uint256)": {
        "details": "Atomically increases the allowance granted to `spender` by the caller. This is an alternative to {approve} that can be used as a mitigation for problems described in {IERC20-approve}. Emits an {Approval} event indicating the updated allowance. Requirements: - `spender` cannot be the zero address."
      },
      "maxFlashLoan(address)": {
        "details": "Returns the maximum amount of tokens available for loan.",
        "params": {
          "token": "The address of the token that is requested."
        },
        "returns": {
          "_0": "The amount of token that can be loaned."
        }
      },
      "name()": {
        "details": "Returns the name of the token."
      },
      "nonces(address)": {
        "details": "See {IERC20Permit-nonces}."
      },
      "numCheckpoints(address)": {
        "details": "Get number of checkpoints for `account`."
      },
      "owner()": {
        "details": "Returns the address of the current owner."
      },
      "paused()": {
        "details": "Returns true if the contract is paused, and false otherwise."
      },
      "permit(address,address,uint256,uint256,uint8,bytes32,bytes32)": {
        "details": "See {IERC20Permit-permit}."
      },
      "renounceOwnership()": {
        "details": "Leaves the contract without owner. It will not be possible to call `onlyOwner` functions anymore. Can only be called by the current owner. NOTE: Renouncing ownership will leave the contract without an owner, thereby removing any functionality that is only available to the owner."
      },
      "symbol()": {
        "details": "Returns the symbol of the token, usually a shorter version of the name."
      },
      "totalSupply()": {
        "details": "See {IERC20-totalSupply}."
      },
      "totalSupplyAt(uint256)": {
        "details": "Retrieves the total supply at the time `snapshotId` was created."
      },
      "transfer(address,uint256)": {
        "details": "See {IERC20-transfer}. Requirements: - `to` cannot be the zero address. - the caller must have a balance of at least `amount`."
      },
      "transferFrom(address,address,uint256)": {
        "details": "See {IERC20-transferFrom}. Emits an {Approval} event indicating the updated allowance. This is not required by the EIP. See the note at the beginning of {ERC20}. NOTE: Does not update the allowance if the current allowance is the maximum `uint256`. Requirements: - `from` and `to` cannot be the zero address. - `from` must have a balance of at least `amount`. - the caller must have allowance for ``from``'s tokens of at least `amount`."
      },
      "transferOwnership(address)": {
        "details": "Transfers ownership of the contract to a new account (`newOwner`). Can only be called by the current owner."
      }
    },
    "version": 1
  },
  "userdoc": {
    "kind": "user",
    "methods": {},
    "version": 1
  }
}