{"contractName":"StateGovernor","abi":[{"inputs":[{"internalType":"contract IVotes","name":"_token","type":"address"},{"internalType":"contract TimelockController","name":"_timelock","type":"address"}],"stateMutability":"nonpayable","type":"constructor"},{"inputs":[],"name":"Empty","type":"error"},{"anonymous":false,"inputs":[{"indexed":false,"internalType":"uint256","name":"proposalId","type":"uint256"}],"name":"ProposalCanceled","type":"event"},{"anonymous":false,"inputs":[{"indexed":false,"internalType":"uint256","name":"proposalId","type":"uint256"},{"indexed":false,"internalType":"address","name":"proposer","type":"address"},{"indexed":false,"internalType":"address[]","name":"targets","type":"address[]"},{"indexed":false,"internalType":"uint256[]","name":"values","type":"uint256[]"},{"indexed":false,"internalType":"string[]","name":"signatures","type":"string[]"},{"indexed":false,"internalType":"bytes[]","name":"calldatas","type":"bytes[]"},{"indexed":false,"internalType":"uint256","name":"startBlock","type":"uint256"},{"indexed":false,"internalType":"uint256","name":"endBlock","type":"uint256"},{"indexed":false,"internalType":"string","name":"description","type":"string"}],"name":"ProposalCreated","type":"event"},{"anonymous":false,"inputs":[{"indexed":false,"internalType":"uint256","name":"proposalId","type":"uint256"}],"name":"ProposalExecuted","type":"event"},{"anonymous":false,"inputs":[{"indexed":false,"internalType":"uint256","name":"proposalId","type":"uint256"},{"indexed":false,"internalType":"uint256","name":"eta","type":"uint256"}],"name":"ProposalQueued","type":"event"},{"anonymous":false,"inputs":[{"indexed":false,"internalType":"uint256","name":"oldProposalThreshold","type":"uint256"},{"indexed":false,"internalType":"uint256","name":"newProposalThreshold","type":"uint256"}],"name":"ProposalThresholdSet","type":"event"},{"anonymous":false,"inputs":[{"indexed":false,"internalType":"uint256","name":"oldQuorumNumerator","type":"uint256"},{"indexed":false,"internalType":"uint256","name":"newQuorumNumerator","type":"uint256"}],"name":"QuorumNumeratorUpdated","type":"event"},{"anonymous":false,"inputs":[{"indexed":false,"internalType":"address","name":"oldTimelock","type":"address"},{"indexed":false,"internalType":"address","name":"newTimelock","type":"address"}],"name":"TimelockChange","type":"event"},{"anonymous":false,"inputs":[{"indexed":true,"internalType":"address","name":"voter","type":"address"},{"indexed":false,"internalType":"uint256","name":"proposalId","type":"uint256"},{"indexed":false,"internalType":"uint8","name":"support","type":"uint8"},{"indexed":false,"internalType":"uint256","name":"weight","type":"uint256"},{"indexed":false,"internalType":"string","name":"reason","type":"string"}],"name":"VoteCast","type":"event"},{"anonymous":false,"inputs":[{"indexed":true,"internalType":"address","name":"voter","type":"address"},{"indexed":false,"internalType":"uint256","name":"proposalId","type":"uint256"},{"indexed":false,"internalType":"uint8","name":"support","type":"uint8"},{"indexed":false,"internalType":"uint256","name":"weight","type":"uint256"},{"indexed":false,"internalType":"string","name":"reason","type":"string"},{"indexed":false,"internalType":"bytes","name":"params","type":"bytes"}],"name":"VoteCastWithParams","type":"event"},{"anonymous":false,"inputs":[{"indexed":false,"internalType":"uint256","name":"oldVotingDelay","type":"uint256"},{"indexed":false,"internalType":"uint256","name":"newVotingDelay","type":"uint256"}],"name":"VotingDelaySet","type":"event"},{"anonymous":false,"inputs":[{"indexed":false,"internalType":"uint256","name":"oldVotingPeriod","type":"uint256"},{"indexed":false,"internalType":"uint256","name":"newVotingPeriod","type":"uint256"}],"name":"VotingPeriodSet","type":"event"},{"inputs":[],"name":"BALLOT_TYPEHASH","outputs":[{"internalType":"bytes32","name":"","type":"bytes32"}],"stateMutability":"view","type":"function","constant":true},{"inputs":[],"name":"COUNTING_MODE","outputs":[{"internalType":"string","name":"","type":"string"}],"stateMutability":"pure","type":"function","constant":true},{"inputs":[],"name":"EXTENDED_BALLOT_TYPEHASH","outputs":[{"internalType":"bytes32","name":"","type":"bytes32"}],"stateMutability":"view","type":"function","constant":true},{"inputs":[{"internalType":"uint256","name":"proposalId","type":"uint256"},{"internalType":"uint8","name":"support","type":"uint8"}],"name":"castVote","outputs":[{"internalType":"uint256","name":"","type":"uint256"}],"stateMutability":"nonpayable","type":"function"},{"inputs":[{"internalType":"uint256","name":"proposalId","type":"uint256"},{"internalType":"uint8","name":"support","type":"uint8"},{"internalType":"uint8","name":"v","type":"uint8"},{"internalType":"bytes32","name":"r","type":"bytes32"},{"internalType":"bytes32","name":"s","type":"bytes32"}],"name":"castVoteBySig","outputs":[{"internalType":"uint256","name":"","type":"uint256"}],"stateMutability":"nonpayable","type":"function"},{"inputs":[{"internalType":"uint256","name":"proposalId","type":"uint256"},{"internalType":"uint8","name":"support","type":"uint8"},{"internalType":"string","name":"reason","type":"string"}],"name":"castVoteWithReason","outputs":[{"internalType":"uint256","name":"","type":"uint256"}],"stateMutability":"nonpayable","type":"function"},{"inputs":[{"internalType":"uint256","name":"proposalId","type":"uint256"},{"internalType":"uint8","name":"support","type":"uint8"},{"internalType":"string","name":"reason","type":"string"},{"internalType":"bytes","name":"params","type":"bytes"}],"name":"castVoteWithReasonAndParams","outputs":[{"internalType":"uint256","name":"","type":"uint256"}],"stateMutability":"nonpayable","type":"function"},{"inputs":[{"internalType":"uint256","name":"proposalId","type":"uint256"},{"internalType":"uint8","name":"support","type":"uint8"},{"internalType":"string","name":"reason","type":"string"},{"internalType":"bytes","name":"params","type":"bytes"},{"internalType":"uint8","name":"v","type":"uint8"},{"internalType":"bytes32","name":"r","type":"bytes32"},{"internalType":"bytes32","name":"s","type":"bytes32"}],"name":"castVoteWithReasonAndParamsBySig","outputs":[{"internalType":"uint256","name":"","type":"uint256"}],"stateMutability":"nonpayable","type":"function"},{"inputs":[{"internalType":"address[]","name":"targets","type":"address[]"},{"internalType":"uint256[]","name":"values","type":"uint256[]"},{"internalType":"bytes[]","name":"calldatas","type":"bytes[]"},{"internalType":"bytes32","name":"descriptionHash","type":"bytes32"}],"name":"execute","outputs":[{"internalType":"uint256","name":"","type":"uint256"}],"stateMutability":"payable","type":"function","payable":true},{"inputs":[{"internalType":"address","name":"account","type":"address"},{"internalType":"uint256","name":"blockNumber","type":"uint256"}],"name":"getVotes","outputs":[{"internalType":"uint256","name":"","type":"uint256"}],"stateMutability":"view","type":"function","constant":true},{"inputs":[{"internalType":"address","name":"account","type":"address"},{"internalType":"uint256","name":"blockNumber","type":"uint256"},{"internalType":"bytes","name":"params","type":"bytes"}],"name":"getVotesWithParams","outputs":[{"internalType":"uint256","name":"","type":"uint256"}],"stateMutability":"view","type":"function","constant":true},{"inputs":[{"internalType":"uint256","name":"proposalId","type":"uint256"},{"internalType":"address","name":"account","type":"address"}],"name":"hasVoted","outputs":[{"internalType":"bool","name":"","type":"bool"}],"stateMutability":"view","type":"function","constant":true},{"inputs":[{"internalType":"address[]","name":"targets","type":"address[]"},{"internalType":"uint256[]","name":"values","type":"uint256[]"},{"internalType":"bytes[]","name":"calldatas","type":"bytes[]"},{"internalType":"bytes32","name":"descriptionHash","type":"bytes32"}],"name":"hashProposal","outputs":[{"internalType":"uint256","name":"","type":"uint256"}],"stateMutability":"pure","type":"function","constant":true},{"inputs":[],"name":"name","outputs":[{"internalType":"string","name":"","type":"string"}],"stateMutability":"view","type":"function","constant":true},{"inputs":[{"internalType":"address","name":"","type":"address"},{"internalType":"address","name":"","type":"address"},{"internalType":"uint256[]","name":"","type":"uint256[]"},{"internalType":"uint256[]","name":"","type":"uint256[]"},{"internalType":"bytes","name":"","type":"bytes"}],"name":"onERC1155BatchReceived","outputs":[{"internalType":"bytes4","name":"","type":"bytes4"}],"stateMutability":"nonpayable","type":"function"},{"inputs":[{"internalType":"address","name":"","type":"address"},{"internalType":"address","name":"","type":"address"},{"internalType":"uint256","name":"","type":"uint256"},{"internalType":"uint256","name":"","type":"uint256"},{"internalType":"bytes","name":"","type":"bytes"}],"name":"onERC1155Received","outputs":[{"internalType":"bytes4","name":"","type":"bytes4"}],"stateMutability":"nonpayable","type":"function"},{"inputs":[{"internalType":"address","name":"","type":"address"},{"internalType":"address","name":"","type":"address"},{"internalType":"uint256","name":"","type":"uint256"},{"internalType":"bytes","name":"","type":"bytes"}],"name":"onERC721Received","outputs":[{"internalType":"bytes4","name":"","type":"bytes4"}],"stateMutability":"nonpayable","type":"function"},{"inputs":[{"internalType":"uint256","name":"proposalId","type":"uint256"}],"name":"proposalDeadline","outputs":[{"internalType":"uint256","name":"","type":"uint256"}],"stateMutability":"view","type":"function","constant":true},{"inputs":[{"internalType":"uint256","name":"proposalId","type":"uint256"}],"name":"proposalEta","outputs":[{"internalType":"uint256","name":"","type":"uint256"}],"stateMutability":"view","type":"function","constant":true},{"inputs":[{"internalType":"uint256","name":"proposalId","type":"uint256"}],"name":"proposalSnapshot","outputs":[{"internalType":"uint256","name":"","type":"uint256"}],"stateMutability":"view","type":"function","constant":true},{"inputs":[{"internalType":"uint256","name":"proposalId","type":"uint256"}],"name":"proposalVotes","outputs":[{"internalType":"uint256","name":"againstVotes","type":"uint256"},{"internalType":"uint256","name":"forVotes","type":"uint256"},{"internalType":"uint256","name":"abstainVotes","type":"uint256"}],"stateMutability":"view","type":"function","constant":true},{"inputs":[{"internalType":"address[]","name":"targets","type":"address[]"},{"internalType":"uint256[]","name":"values","type":"uint256[]"},{"internalType":"bytes[]","name":"calldatas","type":"bytes[]"},{"internalType":"bytes32","name":"descriptionHash","type":"bytes32"}],"name":"queue","outputs":[{"internalType":"uint256","name":"","type":"uint256"}],"stateMutability":"nonpayable","type":"function"},{"inputs":[],"name":"quorumDenominator","outputs":[{"internalType":"uint256","name":"","type":"uint256"}],"stateMutability":"view","type":"function","constant":true},{"inputs":[],"name":"quorumNumerator","outputs":[{"internalType":"uint256","name":"","type":"uint256"}],"stateMutability":"view","type":"function","constant":true},{"inputs":[{"internalType":"address","name":"target","type":"address"},{"internalType":"uint256","name":"value","type":"uint256"},{"internalType":"bytes","name":"data","type":"bytes"}],"name":"relay","outputs":[],"stateMutability":"nonpayable","type":"function"},{"inputs":[{"internalType":"uint256","name":"newProposalThreshold","type":"uint256"}],"name":"setProposalThreshold","outputs":[],"stateMutability":"nonpayable","type":"function"},{"inputs":[{"internalType":"uint256","name":"newVotingDelay","type":"uint256"}],"name":"setVotingDelay","outputs":[],"stateMutability":"nonpayable","type":"function"},{"inputs":[{"internalType":"uint256","name":"newVotingPeriod","type":"uint256"}],"name":"setVotingPeriod","outputs":[],"stateMutability":"nonpayable","type":"function"},{"inputs":[],"name":"timelock","outputs":[{"internalType":"address","name":"","type":"address"}],"stateMutability":"view","type":"function","constant":true},{"inputs":[],"name":"token","outputs":[{"internalType":"contract IVotes","name":"","type":"address"}],"stateMutability":"view","type":"function","constant":true},{"inputs":[{"internalType":"uint256","name":"newQuorumNumerator","type":"uint256"}],"name":"updateQuorumNumerator","outputs":[],"stateMutability":"nonpayable","type":"function"},{"inputs":[{"internalType":"contract TimelockController","name":"newTimelock","type":"address"}],"name":"updateTimelock","outputs":[],"stateMutability":"nonpayable","type":"function"},{"inputs":[],"name":"version","outputs":[{"internalType":"string","name":"","type":"string"}],"stateMutability":"view","type":"function","constant":true},{"stateMutability":"payable","type":"receive","payable":true},{"inputs":[],"name":"votingDelay","outputs":[{"internalType":"uint256","name":"","type":"uint256"}],"stateMutability":"view","type":"function","constant":true},{"inputs":[],"name":"votingPeriod","outputs":[{"internalType":"uint256","name":"","type":"uint256"}],"stateMutability":"view","type":"function","constant":true},{"inputs":[{"internalType":"uint256","name":"blockNumber","type":"uint256"}],"name":"quorum","outputs":[{"internalType":"uint256","name":"","type":"uint256"}],"stateMutability":"view","type":"function","constant":true},{"inputs":[{"internalType":"uint256","name":"proposalId","type":"uint256"}],"name":"state","outputs":[{"internalType":"enum IGovernor.ProposalState","name":"","type":"uint8"}],"stateMutability":"view","type":"function","constant":true},{"inputs":[{"internalType":"address[]","name":"targets","type":"address[]"},{"internalType":"uint256[]","name":"values","type":"uint256[]"},{"internalType":"bytes[]","name":"calldatas","type":"bytes[]"},{"internalType":"string","name":"description","type":"string"}],"name":"propose","outputs":[{"internalType":"uint256","name":"","type":"uint256"}],"stateMutability":"nonpayable","type":"function"},{"inputs":[],"name":"proposalThreshold","outputs":[{"internalType":"uint256","name":"","type":"uint256"}],"stateMutability":"view","type":"function","constant":true},{"inputs":[{"internalType":"bytes4","name":"interfaceId","type":"bytes4"}],"name":"supportsInterface","outputs":[{"internalType":"bool","name":"","type":"bool"}],"stateMutability":"view","type":"function","constant":true}],"bytecode":"0x6101606040523480156200001257600080fd5b5060405162003f1538038062003f158339810160408190526200003591620004a7565b80600483600161b2fa60006040518060400160405280600d81526020016c29ba30ba32a3b7bb32b93737b960991b81525080620000776200017160201b60201c565b815160208084019190912082518383012060e08290526101008190524660a0818152604080517f8b73c3c69bb8fe3d512ecc4cf759cc79239f7b179b0ffacaa9a75d522b39400f81880181905281830187905260608201869052608082019490945230818401528151808203909301835260c00190528051940193909320919290916080523060c05261012052505082516200011d9250600091506020840190620003e8565b506200012b9050836200018c565b6200013682620001cd565b620001418162000274565b5050506001600160a01b0316610140526200015c81620002b5565b5062000168816200037f565b50505062000522565b6040805180820190915260018152603160f81b602082015290565b60045460408051918252602082018390527fc565b045403dc03c2eea82b81a0465edad9e2e7fc4d97e11421c209da93d7a93910160405180910390a1600455565b60008111620002335760405162461bcd60e51b815260206004820152602760248201527f476f7665726e6f7253657474696e67733a20766f74696e6720706572696f6420604482015266746f6f206c6f7760c81b60648201526084015b60405180910390fd5b60055460408051918252602082018390527f7e3f7f0708a84de9203036abaa450dccc85ad5ff52f78c170f3edb55cf5e8828910160405180910390a1600555565b60065460408051918252602082018390527fccb45da8d5717e6c4544694297c4ba5cf151d455c9bb0ed4fc7a38411bc05461910160405180910390a1600655565b60648111156200033a5760405162461bcd60e51b815260206004820152604360248201527f476f7665726e6f72566f74657351756f72756d4672616374696f6e3a2071756f60448201527f72756d4e756d657261746f72206f7665722071756f72756d44656e6f6d696e616064820152623a37b960e91b608482015260a4016200022a565b600880549082905560408051828152602081018490527f0553476bf02ef2726e8ce5ced78d63e26e602e4a2257b1f559418e24b4633997910160405180910390a15050565b600954604080516001600160a01b03928316815291831660208301527f08f74ea46ef7894f65eabfb5e6e695de773a000b47c529ab559178069b226401910160405180910390a1600980546001600160a01b0319166001600160a01b0392909216919091179055565b828054620003f690620004e6565b90600052602060002090601f0160209004810192826200041a576000855562000465565b82601f106200043557805160ff191683800117855562000465565b8280016001018555821562000465579182015b828111156200046557825182559160200191906001019062000448565b506200047392915062000477565b5090565b5b8082111562000473576000815560010162000478565b6001600160a01b0381168114620004a457600080fd5b50565b60008060408385031215620004bb57600080fd5b8251620004c8816200048e565b6020840151909250620004db816200048e565b809150509250929050565b600181811c90821680620004fb57607f821691505b6020821081036200051c57634e487b7160e01b600052602260045260246000fd5b50919050565b60805160a05160c05160e05161010051610120516101405161398a6200058b600039600081816108cb01528181611ec001526120e901526000612265015260006122b40152600061228f015260006121e8015260006122120152600061223c015261398a6000f3fe6080604052600436106102bf5760003560e01c80637d5e81e21161016e578063c59057e4116100cb578063eb9019d41161007f578063f23a6e6111610064578063f23a6e611461086d578063f8ce560a14610899578063fc0c546a146108b957600080fd5b8063eb9019d41461082d578063ece40cc11461084d57600080fd5b8063dd4e2ba5116100b0578063dd4e2ba514610793578063deaaa7cc146107d9578063ea0217cf1461080d57600080fd5b8063c59057e414610741578063d33219b41461076157600080fd5b8063ab58fb8e11610122578063bc197c8111610107578063bc197c81146106d5578063c01f9e3714610701578063c28bc2fa1461072157600080fd5b8063ab58fb8e146106a0578063b58131b0146106c057600080fd5b80639a802a6d116101535780639a802a6d1461064b578063a7713a701461066b578063a890c9101461068057600080fd5b80637d5e81e21461061757806397c3d3341461063757600080fd5b80633932abb11161021c57806354fd4d50116101d05780635f398a14116101b55780635f398a14146105b757806370b0f660146105d75780637b3c71d3146105f757600080fd5b806354fd4d501461056d578063567813881461059757600080fd5b80633e4f49e6116102015780633e4f49e6146104a157806343859632146104ce578063544ffc9c1461051857600080fd5b80633932abb11461046c5780633bccf4fd1461048157600080fd5b8063150b7a02116102735780632656227d116102585780632656227d146104055780632d63f693146104185780632fe3e2611461043857600080fd5b8063150b7a02146103a1578063160cbed7146103e557600080fd5b806303420181116102a4578063034201811461033f57806306f3f9e61461035f57806306fdde031461037f57600080fd5b806301ffc9a7146102e757806302a251a31461031c57600080fd5b366102e257306102cd6108ed565b6001600160a01b0316146102e057600080fd5b005b600080fd5b3480156102f357600080fd5b50610307610302366004612b36565b610906565b60405190151581526020015b60405180910390f35b34801561032857600080fd5b50610331610917565b604051908152602001610313565b34801561034b57600080fd5b5061033161035a366004612c7e565b610922565b34801561036b57600080fd5b506102e061037a366004612d25565b610a1a565b34801561038b57600080fd5b50610394610ad4565b6040516103139190612d9a565b3480156103ad57600080fd5b506103cc6103bc366004612dc2565b630a85bd0160e11b949350505050565b6040516001600160e01b03199091168152602001610313565b3480156103f157600080fd5b50610331610400366004612fa1565b610b66565b610331610413366004612fa1565b610da0565b34801561042457600080fd5b50610331610433366004612d25565b610ec7565b34801561044457600080fd5b506103317fb3b3f3b703cd84ce352197dcff232b1b5d3cfb2025ce47cf04742d0651f1af8881565b34801561047857600080fd5b50610331610f00565b34801561048d57600080fd5b5061033161049c366004613031565b610f0b565b3480156104ad57600080fd5b506104c16104bc366004612d25565b610f81565b6040516103139190613095565b3480156104da57600080fd5b506103076104e93660046130bd565b60008281526007602090815260408083206001600160a01b038516845260030190915290205460ff1692915050565b34801561052457600080fd5b50610552610533366004612d25565b6000908152600760205260409020805460018201546002909201549092565b60408051938452602084019290925290820152606001610313565b34801561057957600080fd5b506040805180820190915260018152603160f81b6020820152610394565b3480156105a357600080fd5b506103316105b23660046130ed565b610f8c565b3480156105c357600080fd5b506103316105d2366004613119565b610fb5565b3480156105e357600080fd5b506102e06105f2366004612d25565b610fff565b34801561060357600080fd5b5061033161061236600461319d565b6110b1565b34801561062357600080fd5b506103316106323660046131f7565b611103565b34801561064357600080fd5b506064610331565b34801561065757600080fd5b506103316106663660046132ac565b61111a565b34801561067757600080fd5b50600854610331565b34801561068c57600080fd5b506102e061069b366004613305565b611131565b3480156106ac57600080fd5b506103316106bb366004612d25565b6111e3565b3480156106cc57600080fd5b5061033161127d565b3480156106e157600080fd5b506103cc6106f0366004613322565b63bc197c8160e01b95945050505050565b34801561070d57600080fd5b5061033161071c366004612d25565b611288565b34801561072d57600080fd5b506102e061073c3660046133b6565b6112b8565b34801561074d57600080fd5b5061033161075c366004612fa1565b6113aa565b34801561076d57600080fd5b506009546001600160a01b03165b6040516001600160a01b039091168152602001610313565b34801561079f57600080fd5b506040805180820190915260208082527f737570706f72743d627261766f2671756f72756d3d666f722c6162737461696e90820152610394565b3480156107e557600080fd5b506103317f150214d74d59b7d1e90c73fc22ef3d991dd0a76b046543d4d80ab92d2a50328f81565b34801561081957600080fd5b506102e0610828366004612d25565b6113e4565b34801561083957600080fd5b506103316108483660046133fa565b611496565b34801561085957600080fd5b506102e0610868366004612d25565b6114b7565b34801561087957600080fd5b506103cc610888366004613426565b63f23a6e6160e01b95945050505050565b3480156108a557600080fd5b506103316108b4366004612d25565b611569565b3480156108c557600080fd5b5061077b7f000000000000000000000000000000000000000000000000000000000000000081565b60006109016009546001600160a01b031690565b905090565b600061091182611574565b92915050565b600061090160055490565b6000806109c66109be7fb3b3f3b703cd84ce352197dcff232b1b5d3cfb2025ce47cf04742d0651f1af888c8c8c8c60405161095e92919061348f565b60405180910390208b805190602001206040516020016109a3959493929190948552602085019390935260ff9190911660408401526060830152608082015260a00190565b60405160208183030381529060405280519060200120611599565b8686866115e7565b9050610a0c8a828b8b8b8080601f0160208091040260200160405190810160405280939291908181526020018383808284376000920191909152508d9250611605915050565b9a9950505050505050505050565b610a226108ed565b6001600160a01b0316336001600160a01b031614610a825760405162461bcd60e51b8152602060048201526018602482015277476f7665726e6f723a206f6e6c79476f7665726e616e636560401b60448201526064015b60405180910390fd5b30610a8b6108ed565b6001600160a01b031614610ac85760008036604051610aab92919061348f565b604051809103902090505b80610ac1600261176b565b03610ab657505b610ad1816117f3565b50565b606060008054610ae39061349f565b80601f0160208091040260200160405190810160405280929190818152602001828054610b0f9061349f565b8015610b5c5780601f10610b3157610100808354040283529160200191610b5c565b820191906000526020600020905b815481529060010190602001808311610b3f57829003601f168201915b5050505050905090565b600080610b75868686866113aa565b90506004610b8282610f81565b6007811115610b9357610b9361307f565b14610bea5760405162461bcd60e51b815260206004820152602160248201527f476f7665726e6f723a2070726f706f73616c206e6f74207375636365737366756044820152601b60fa1b6064820152608401610a79565b6009546040805163793d064960e11b815290516000926001600160a01b03169163f27a0c929160048083019260209291908290030181865afa158015610c34573d6000803e3d6000fd5b505050506040513d601f19601f82011682018060405250810190610c5891906134d9565b60095460405163b1c5f42760e01b81529192506001600160a01b03169063b1c5f42790610c92908a908a908a906000908b906004016135bb565b602060405180830381865afa158015610caf573d6000803e3d6000fd5b505050506040513d601f19601f82011682018060405250810190610cd391906134d9565b6000838152600a60205260408082209290925560095491516308f2a0bb60e41b81526001600160a01b0390921691638f2a0bb091610d1e918b918b918b91908b908990600401613609565b600060405180830381600087803b158015610d3857600080fd5b505af1158015610d4c573d6000803e3d6000fd5b505050507f9a2e42fd6722813d69113e7d0079d3d940171428df7373df9c7f7617cfda2892828242610d7e9190613677565b6040805192835260208301919091520160405180910390a15095945050505050565b600080610daf868686866113aa565b90506000610dbc82610f81565b90506004816007811115610dd257610dd261307f565b1480610def57506005816007811115610ded57610ded61307f565b145b610e455760405162461bcd60e51b815260206004820152602160248201527f476f7665726e6f723a2070726f706f73616c206e6f74207375636365737366756044820152601b60fa1b6064820152608401610a79565b600082815260016020818152604092839020600201805460ff191690921790915590518381527f712ae1383f79ac853f8d882153778e0260ef8f03b504e2866e0593e04d2b291f910160405180910390a1610ea382888888886118bb565b610eb0828888888861195c565b610ebd8288888888611969565b5095945050505050565b600081815260016020908152604080832081519283019091525467ffffffffffffffff16908190525b67ffffffffffffffff1692915050565b600061090160045490565b604080517f150214d74d59b7d1e90c73fc22ef3d991dd0a76b046543d4d80ab92d2a50328f602082015290810186905260ff851660608201526000908190610f59906109be906080016109a3565b9050610f76878288604051806020016040528060008152506119a2565b979650505050505050565b6000610911826119c5565b600080339050610fad848285604051806020016040528060008152506119a2565b949350505050565b600080339050610f7687828888888080601f0160208091040260200160405190810160405280939291908181526020018383808284376000920191909152508a9250611605915050565b6110076108ed565b6001600160a01b0316336001600160a01b0316146110625760405162461bcd60e51b8152602060048201526018602482015277476f7665726e6f723a206f6e6c79476f7665726e616e636560401b6044820152606401610a79565b3061106b6108ed565b6001600160a01b0316146110a8576000803660405161108b92919061348f565b604051809103902090505b806110a1600261176b565b0361109657505b610ad181611b0f565b6000803390506110f986828787878080601f0160208091040260200160405190810160405280939291908181526020018383808284376000920191909152506119a292505050565b9695505050505050565b600061111185858585611b50565b95945050505050565b6000611127848484611e97565b90505b9392505050565b6111396108ed565b6001600160a01b0316336001600160a01b0316146111945760405162461bcd60e51b8152602060048201526018602482015277476f7665726e6f723a206f6e6c79476f7665726e616e636560401b6044820152606401610a79565b3061119d6108ed565b6001600160a01b0316146111da57600080366040516111bd92919061348f565b604051809103902090505b806111d3600261176b565b036111c857505b610ad181611f2d565b6009546000828152600a602052604080822054905163d45c443560e01b81526004810191909152909182916001600160a01b039091169063d45c443590602401602060405180830381865afa158015611240573d6000803e3d6000fd5b505050506040513d601f19601f8201168201806040525081019061126491906134d9565b905080600114611274578061112a565b60009392505050565b600061090160065490565b600081815260016020818152604080842081519283019091529091015467ffffffffffffffff1690819052610ef0565b6112c06108ed565b6001600160a01b0316336001600160a01b03161461131b5760405162461bcd60e51b8152602060048201526018602482015277476f7665726e6f723a206f6e6c79476f7665726e616e636560401b6044820152606401610a79565b306113246108ed565b6001600160a01b031614611361576000803660405161134492919061348f565b604051809103902090505b8061135a600261176b565b0361134f57505b6113a38483838080601f016020809104026020016040519081016040528093929190818152602001838380828437600092019190915250889250611fae915050565b5050505050565b6000848484846040516020016113c3949392919061368f565b60408051601f19818403018152919052805160209091012095945050505050565b6113ec6108ed565b6001600160a01b0316336001600160a01b0316146114475760405162461bcd60e51b8152602060048201526018602482015277476f7665726e6f723a206f6e6c79476f7665726e616e636560401b6044820152606401610a79565b306114506108ed565b6001600160a01b03161461148d576000803660405161147092919061348f565b604051809103902090505b80611486600261176b565b0361147b57505b610ad181611fd4565b600061112a83836114b260408051602081019091526000815290565b611e97565b6114bf6108ed565b6001600160a01b0316336001600160a01b03161461151a5760405162461bcd60e51b8152602060048201526018602482015277476f7665726e6f723a206f6e6c79476f7665726e616e636560401b6044820152606401610a79565b306115236108ed565b6001600160a01b031614611560576000803660405161154392919061348f565b604051809103902090505b80611559600261176b565b0361154e57505b610ad18161208b565b6000610911826120cc565b60006001600160e01b03198216636e665ced60e01b1480610911575061091182612170565b60006109116115a66121db565b8360405161190160f01b6020820152602281018390526042810182905260009060620160405160208183030381529060405280519060200120905092915050565b60008060006115f887878787612302565b91509150610ebd816123ef565b600085815260016020819052604082209061161f88610f81565b60078111156116305761163061307f565b146116895760405162461bcd60e51b815260206004820152602360248201527f476f7665726e6f723a20766f7465206e6f742063757272656e746c792061637460448201526269766560e81b6064820152608401610a79565b6040805160208101909152815467ffffffffffffffff16908190526000906116b390889086611e97565b90506116c288888884886125a5565b835160000361171757866001600160a01b03167fb8e138887d0aa13bab447e82de9d5c1777041ecd21ca36ba824ff1e6c07ddda48988848960405161170a94939291906136da565b60405180910390a2610f76565b866001600160a01b03167fe2babfbac5889a709b63bb7f598b324e08bc5a4fb9ec647fb3cbc9ec07eb87128988848989604051611758959493929190613702565b60405180910390a2979650505050505050565b60006117868254600f81810b600160801b909204900b131590565b156117a457604051631ed9509560e11b815260040160405180910390fd5b508054600f0b6000818152600180840160205260408220805492905583546fffffffffffffffffffffffffffffffff191692016fffffffffffffffffffffffffffffffff169190911790915590565b60648111156118765760405162461bcd60e51b815260206004820152604360248201527f476f7665726e6f72566f74657351756f72756d4672616374696f6e3a2071756f60448201527f72756d4e756d657261746f72206f7665722071756f72756d44656e6f6d696e616064820152623a37b960e91b608482015260a401610a79565b600880549082905560408051828152602081018490527f0553476bf02ef2726e8ce5ced78d63e26e602e4a2257b1f559418e24b4633997910160405180910390a15050565b306118c46108ed565b6001600160a01b0316146113a35760005b845181101561195457306001600160a01b03168582815181106118fa576118fa613748565b60200260200101516001600160a01b0316036119445761194483828151811061192557611925613748565b602002602001015180519060200120600261273d90919063ffffffff16565b61194d8161375e565b90506118d5565b505050505050565b6113a38585858585612782565b306119726108ed565b6001600160a01b0316146113a357600254600f81810b600160801b909204900b13156113a35760006002556113a3565b6000611111858585856119c060408051602081019091526000815290565b611605565b6000806119d1836127f6565b905060048160078111156119e7576119e761307f565b146119f25792915050565b6000838152600a602052604090205480611a0d575092915050565b600954604051632ab0f52960e01b8152600481018390526001600160a01b0390911690632ab0f52990602401602060405180830381865afa158015611a56573d6000803e3d6000fd5b505050506040513d601f19601f82011682018060405250810190611a7a9190613777565b15611a89575060079392505050565b600954604051632c258a9f60e11b8152600481018390526001600160a01b039091169063584b153e90602401602060405180830381865afa158015611ad2573d6000803e3d6000fd5b505050506040513d601f19601f82011682018060405250810190611af69190613777565b15611b05575060059392505050565b5060029392505050565b60045460408051918252602082018390527fc565b045403dc03c2eea82b81a0465edad9e2e7fc4d97e11421c209da93d7a93910160405180910390a1600455565b6000611b5a61127d565b611b6933610848600143613799565b1015611bdd5760405162461bcd60e51b815260206004820152603160248201527f476f7665726e6f723a2070726f706f73657220766f7465732062656c6f77207060448201527f726f706f73616c207468726573686f6c640000000000000000000000000000006064820152608401610a79565b6000611bf286868686805190602001206113aa565b90508451865114611c4f5760405162461bcd60e51b815260206004820152602160248201527f476f7665726e6f723a20696e76616c69642070726f706f73616c206c656e67746044820152600d60fb1b6064820152608401610a79565b8351865114611caa5760405162461bcd60e51b815260206004820152602160248201527f476f7665726e6f723a20696e76616c69642070726f706f73616c206c656e67746044820152600d60fb1b6064820152608401610a79565b6000865111611cfb5760405162461bcd60e51b815260206004820152601860248201527f476f7665726e6f723a20656d7074792070726f706f73616c00000000000000006044820152606401610a79565b6000818152600160209081526040918290208251918201909252815467ffffffffffffffff169081905215611d7c5760405162461bcd60e51b815260206004820152602160248201527f476f7665726e6f723a2070726f706f73616c20616c72656164792065786973746044820152607360f81b6064820152608401610a79565b6000611d8e611d89610f00565b612905565b611d9743612905565b611da191906137b0565b90506000611db0611d89610917565b611dba90836137b0565b835467ffffffffffffffff191667ffffffffffffffff8416178455905060018301805467ffffffffffffffff191667ffffffffffffffff83161790557f7d84a6263ae0d98d3329bd7b46bb4e8d6f98cd35a7adb45c274c8b7fd5ebd5e084338b8b8d5167ffffffffffffffff811115611e3557611e35612bbf565b604051908082528060200260200182016040528015611e6857816020015b6060815260200190600190039081611e535790505b508c88888e604051611e82999897969594939291906137dc565b60405180910390a15091979650505050505050565b604051630748d63560e31b81526001600160a01b038481166004830152602482018490526000917f000000000000000000000000000000000000000000000000000000000000000090911690633a46b1a890604401602060405180830381865afa158015611f09573d6000803e3d6000fd5b505050506040513d601f19601f8201168201806040525081019061112791906134d9565b600954604080516001600160a01b03928316815291831660208301527f08f74ea46ef7894f65eabfb5e6e695de773a000b47c529ab559178069b226401910160405180910390a1600980547fffffffffffffffffffffffff0000000000000000000000000000000000000000166001600160a01b0392909216919091179055565b606061112784848460405180606001604052806029815260200161392c60299139612989565b6000811161204a5760405162461bcd60e51b815260206004820152602760248201527f476f7665726e6f7253657474696e67733a20766f74696e6720706572696f642060448201527f746f6f206c6f77000000000000000000000000000000000000000000000000006064820152608401610a79565b60055460408051918252602082018390527f7e3f7f0708a84de9203036abaa450dccc85ad5ff52f78c170f3edb55cf5e8828910160405180910390a1600555565b60065460408051918252602082018390527fccb45da8d5717e6c4544694297c4ba5cf151d455c9bb0ed4fc7a38411bc05461910160405180910390a1600655565b60006064600854604051632394e7a360e21b8152600481018590527f00000000000000000000000000000000000000000000000000000000000000006001600160a01b031690638e539e8c90602401602060405180830381865afa158015612138573d6000803e3d6000fd5b505050506040513d601f19601f8201168201806040525081019061215c91906134d9565b61216691906138ce565b61091191906138ed565b60006001600160e01b0319821663bf26d89760e01b14806121a157506001600160e01b031982166379dd796f60e01b145b806121bc57506001600160e01b03198216630271189760e51b145b8061091157506301ffc9a760e01b6001600160e01b0319831614610911565b6000306001600160a01b037f00000000000000000000000000000000000000000000000000000000000000001614801561223457507f000000000000000000000000000000000000000000000000000000000000000046145b1561225e57507f000000000000000000000000000000000000000000000000000000000000000090565b50604080517f00000000000000000000000000000000000000000000000000000000000000006020808301919091527f0000000000000000000000000000000000000000000000000000000000000000828401527f000000000000000000000000000000000000000000000000000000000000000060608301524660808301523060a0808401919091528351808403909101815260c0909201909252805191012090565b6000807f7fffffffffffffffffffffffffffffff5d576e7357a4501ddfe92f46681b20a083111561233957506000905060036123e6565b8460ff16601b1415801561235157508460ff16601c14155b1561236257506000905060046123e6565b6040805160008082526020820180845289905260ff881692820192909252606081018690526080810185905260019060a0016020604051602081039080840390855afa1580156123b6573d6000803e3d6000fd5b5050604051601f1901519150506001600160a01b0381166123df576000600192509250506123e6565b9150600090505b94509492505050565b60008160048111156124035761240361307f565b0361240b5750565b600181600481111561241f5761241f61307f565b0361246c5760405162461bcd60e51b815260206004820152601860248201527f45434453413a20696e76616c6964207369676e617475726500000000000000006044820152606401610a79565b60028160048111156124805761248061307f565b036124cd5760405162461bcd60e51b815260206004820152601f60248201527f45434453413a20696e76616c6964207369676e6174757265206c656e677468006044820152606401610a79565b60038160048111156124e1576124e161307f565b036125395760405162461bcd60e51b815260206004820152602260248201527f45434453413a20696e76616c6964207369676e6174757265202773272076616c604482015261756560f01b6064820152608401610a79565b600481600481111561254d5761254d61307f565b03610ad15760405162461bcd60e51b815260206004820152602260248201527f45434453413a20696e76616c6964207369676e6174757265202776272076616c604482015261756560f01b6064820152608401610a79565b60008581526007602090815260408083206001600160a01b0388168452600381019092529091205460ff16156126435760405162461bcd60e51b815260206004820152602760248201527f476f7665726e6f72566f74696e6753696d706c653a20766f746520616c72656160448201527f64792063617374000000000000000000000000000000000000000000000000006064820152608401610a79565b6001600160a01b03851660009081526003820160205260409020805460ff1916600117905560ff841661268f57828160000160008282546126849190613677565b909155506119549050565b60001960ff8516016126af57828160010160008282546126849190613677565b60011960ff8516016126cf57828160020160008282546126849190613677565b60405162461bcd60e51b815260206004820152603560248201527f476f7665726e6f72566f74696e6753696d706c653a20696e76616c696420766160448201527f6c756520666f7220656e756d20566f74655479706500000000000000000000006064820152608401610a79565b8154600160801b90819004600f0b6000818152600180860160205260409091209390935583546fffffffffffffffffffffffffffffffff908116939091011602179055565b60095460405163e38335e560e01b81526001600160a01b039091169063e38335e59034906127bd9088908890889060009089906004016135bb565b6000604051808303818588803b1580156127d657600080fd5b505af11580156127ea573d6000803e3d6000fd5b50505050505050505050565b6000818152600160205260408120600281015460ff161561281a5750600792915050565b6002810154610100900460ff16156128355750600292915050565b600061284084610ec7565b9050806000036128925760405162461bcd60e51b815260206004820152601d60248201527f476f7665726e6f723a20756e6b6e6f776e2070726f706f73616c2069640000006044820152606401610a79565b4381106128a3575060009392505050565b60006128ae85611288565b90504381106128c257506001949350505050565b6128cb85612ac6565b80156128ea575060008581526007602052604090208054600190910154115b156128fa57506004949350505050565b506003949350505050565b600067ffffffffffffffff8211156129855760405162461bcd60e51b815260206004820152602660248201527f53616665436173743a2076616c756520646f65736e27742066697420696e203660448201527f34206269747300000000000000000000000000000000000000000000000000006064820152608401610a79565b5090565b606082471015612a015760405162461bcd60e51b815260206004820152602660248201527f416464726573733a20696e73756666696369656e742062616c616e636520666f60448201527f722063616c6c00000000000000000000000000000000000000000000000000006064820152608401610a79565b6001600160a01b0385163b612a585760405162461bcd60e51b815260206004820152601d60248201527f416464726573733a2063616c6c20746f206e6f6e2d636f6e74726163740000006044820152606401610a79565b600080866001600160a01b03168587604051612a74919061390f565b60006040518083038185875af1925050503d8060008114612ab1576040519150601f19603f3d011682016040523d82523d6000602084013e612ab6565b606091505b5091509150610f76828286612afd565b600081815260076020526040812060028101546001820154612ae89190613677565b612af46108b485610ec7565b11159392505050565b60608315612b0c57508161112a565b825115612b1c5782518084602001fd5b8160405162461bcd60e51b8152600401610a799190612d9a565b600060208284031215612b4857600080fd5b81356001600160e01b03198116811461112a57600080fd5b803560ff81168114612b7157600080fd5b919050565b60008083601f840112612b8857600080fd5b50813567ffffffffffffffff811115612ba057600080fd5b602083019150836020828501011115612bb857600080fd5b9250929050565b634e487b7160e01b600052604160045260246000fd5b604051601f8201601f1916810167ffffffffffffffff81118282101715612bfe57612bfe612bbf565b604052919050565b600067ffffffffffffffff831115612c2057612c20612bbf565b612c33601f8401601f1916602001612bd5565b9050828152838383011115612c4757600080fd5b828260208301376000602084830101529392505050565b600082601f830112612c6f57600080fd5b61112a83833560208501612c06565b60008060008060008060008060e0898b031215612c9a57600080fd5b88359750612caa60208a01612b60565b9650604089013567ffffffffffffffff80821115612cc757600080fd5b612cd38c838d01612b76565b909850965060608b0135915080821115612cec57600080fd5b50612cf98b828c01612c5e565b945050612d0860808a01612b60565b925060a0890135915060c089013590509295985092959890939650565b600060208284031215612d3757600080fd5b5035919050565b60005b83811015612d59578181015183820152602001612d41565b83811115612d68576000848401525b50505050565b60008151808452612d86816020860160208601612d3e565b601f01601f19169290920160200192915050565b60208152600061112a6020830184612d6e565b6001600160a01b0381168114610ad157600080fd5b60008060008060808587031215612dd857600080fd5b8435612de381612dad565b93506020850135612df381612dad565b925060408501359150606085013567ffffffffffffffff811115612e1657600080fd5b612e2287828801612c5e565b91505092959194509250565b600067ffffffffffffffff821115612e4857612e48612bbf565b5060051b60200190565b600082601f830112612e6357600080fd5b81356020612e78612e7383612e2e565b612bd5565b82815260059290921b84018101918181019086841115612e9757600080fd5b8286015b84811015612ebb578035612eae81612dad565b8352918301918301612e9b565b509695505050505050565b600082601f830112612ed757600080fd5b81356020612ee7612e7383612e2e565b82815260059290921b84018101918181019086841115612f0657600080fd5b8286015b84811015612ebb5780358352918301918301612f0a565b600082601f830112612f3257600080fd5b81356020612f42612e7383612e2e565b82815260059290921b84018101918181019086841115612f6157600080fd5b8286015b84811015612ebb57803567ffffffffffffffff811115612f855760008081fd5b612f938986838b0101612c5e565b845250918301918301612f65565b60008060008060808587031215612fb757600080fd5b843567ffffffffffffffff80821115612fcf57600080fd5b612fdb88838901612e52565b95506020870135915080821115612ff157600080fd5b612ffd88838901612ec6565b9450604087013591508082111561301357600080fd5b5061302087828801612f21565b949793965093946060013593505050565b600080600080600060a0868803121561304957600080fd5b8535945061305960208701612b60565b935061306760408701612b60565b94979396509394606081013594506080013592915050565b634e487b7160e01b600052602160045260246000fd5b60208101600883106130b757634e487b7160e01b600052602160045260246000fd5b91905290565b600080604083850312156130d057600080fd5b8235915060208301356130e281612dad565b809150509250929050565b6000806040838503121561310057600080fd5b8235915061311060208401612b60565b90509250929050565b60008060008060006080868803121561313157600080fd5b8535945061314160208701612b60565b9350604086013567ffffffffffffffff8082111561315e57600080fd5b61316a89838a01612b76565b9095509350606088013591508082111561318357600080fd5b5061319088828901612c5e565b9150509295509295909350565b600080600080606085870312156131b357600080fd5b843593506131c360208601612b60565b9250604085013567ffffffffffffffff8111156131df57600080fd5b6131eb87828801612b76565b95989497509550505050565b6000806000806080858703121561320d57600080fd5b843567ffffffffffffffff8082111561322557600080fd5b61323188838901612e52565b9550602087013591508082111561324757600080fd5b61325388838901612ec6565b9450604087013591508082111561326957600080fd5b61327588838901612f21565b9350606087013591508082111561328b57600080fd5b508501601f8101871361329d57600080fd5b612e2287823560208401612c06565b6000806000606084860312156132c157600080fd5b83356132cc81612dad565b925060208401359150604084013567ffffffffffffffff8111156132ef57600080fd5b6132fb86828701612c5e565b9150509250925092565b60006020828403121561331757600080fd5b813561112a81612dad565b600080600080600060a0868803121561333a57600080fd5b853561334581612dad565b9450602086013561335581612dad565b9350604086013567ffffffffffffffff8082111561337257600080fd5b61337e89838a01612ec6565b9450606088013591508082111561339457600080fd5b6133a089838a01612ec6565b9350608088013591508082111561318357600080fd5b600080600080606085870312156133cc57600080fd5b84356133d781612dad565b935060208501359250604085013567ffffffffffffffff8111156131df57600080fd5b6000806040838503121561340d57600080fd5b823561341881612dad565b946020939093013593505050565b600080600080600060a0868803121561343e57600080fd5b853561344981612dad565b9450602086013561345981612dad565b93506040860135925060608601359150608086013567ffffffffffffffff81111561348357600080fd5b61319088828901612c5e565b8183823760009101908152919050565b600181811c908216806134b357607f821691505b6020821081036134d357634e487b7160e01b600052602260045260246000fd5b50919050565b6000602082840312156134eb57600080fd5b5051919050565b600081518084526020808501945080840160005b8381101561352b5781516001600160a01b031687529582019590820190600101613506565b509495945050505050565b600081518084526020808501945080840160005b8381101561352b5781518752958201959082019060010161354a565b600081518084526020808501808196508360051b8101915082860160005b858110156135ae57828403895261359c848351612d6e565b98850198935090840190600101613584565b5091979650505050505050565b60a0815260006135ce60a08301886134f2565b82810360208401526135e08188613536565b905082810360408401526135f48187613566565b60608401959095525050608001529392505050565b60c08152600061361c60c08301896134f2565b828103602084015261362e8189613536565b905082810360408401526136428188613566565b60608401969096525050608081019290925260a0909101529392505050565b634e487b7160e01b600052601160045260246000fd5b6000821982111561368a5761368a613661565b500190565b6080815260006136a260808301876134f2565b82810360208401526136b48187613536565b905082810360408401526136c88186613566565b91505082606083015295945050505050565b84815260ff841660208201528260408201526080606082015260006110f96080830184612d6e565b85815260ff8516602082015283604082015260a06060820152600061372a60a0830185612d6e565b828103608084015261373c8185612d6e565b98975050505050505050565b634e487b7160e01b600052603260045260246000fd5b60006001820161377057613770613661565b5060010190565b60006020828403121561378957600080fd5b8151801515811461112a57600080fd5b6000828210156137ab576137ab613661565b500390565b600067ffffffffffffffff8083168185168083038211156137d3576137d3613661565b01949350505050565b60006101208b835260206001600160a01b038c16818501528160408501526138068285018c6134f2565b9150838203606085015261381a828b613536565b915083820360808501528189518084528284019150828160051b850101838c0160005b8381101561386b57601f19878403018552613859838351612d6e565b9486019492509085019060010161383d565b505086810360a088015261387f818c613566565b94505050505061389b60c084018767ffffffffffffffff169052565b67ffffffffffffffff851660e08401528281036101008401526138be8185612d6e565b9c9b505050505050505050505050565b60008160001904831182151516156138e8576138e8613661565b500290565b60008261390a57634e487b7160e01b600052601260045260246000fd5b500490565b60008251613921818460208701612d3e565b919091019291505056fe416464726573733a206c6f772d6c6576656c2063616c6c20776974682076616c7565206661696c6564a264697066735822122083d1e9b2815c48875cce05af620ef08c3b797bdd307dbd962e4a8f33d69a3f3f64736f6c634300080e0033","immutableReferences":{"6178":[{"length":32,"start":2251},{"length":32,"start":7872},{"length":32,"start":8425}],"16018":[{"length":32,"start":8764}],"16020":[{"length":32,"start":8722}],"16022":[{"length":32,"start":8680}],"16024":[{"length":32,"start":8847}],"16026":[{"length":32,"start":8884}],"16028":[{"length":32,"start":8805}]},"source":"// SPDX-License-Identifier: MIT\npragma solidity ^0.8.4;\n\nimport \"@openzeppelin/contracts/governance/Governor.sol\";\nimport \"@openzeppelin/contracts/governance/extensions/GovernorSettings.sol\";\nimport \"@openzeppelin/contracts/governance/extensions/GovernorCountingSimple.sol\";\nimport \"@openzeppelin/contracts/governance/extensions/GovernorVotes.sol\";\nimport \"@openzeppelin/contracts/governance/extensions/GovernorVotesQuorumFraction.sol\";\nimport \"@openzeppelin/contracts/governance/extensions/GovernorTimelockControl.sol\";\n\ncontract StateGovernor is Governor, GovernorSettings, GovernorCountingSimple, GovernorVotes, GovernorVotesQuorumFraction, GovernorTimelockControl {\n    constructor(IVotes _token, TimelockController _timelock)\n        Governor(\"StateGovernor\")\n        GovernorSettings(1 /* 1 block */, 45818 /* 1 week */, 0)\n        GovernorVotes(_token)\n        GovernorVotesQuorumFraction(4)\n        GovernorTimelockControl(_timelock)\n    {}\n\n    // The following functions are overrides required by Solidity.\n\n    function votingDelay()\n        public\n        view\n        override(IGovernor, GovernorSettings)\n        returns (uint256)\n    {\n        return super.votingDelay();\n    }\n\n    function votingPeriod()\n        public\n        view\n        override(IGovernor, GovernorSettings)\n        returns (uint256)\n    {\n        return super.votingPeriod();\n    }\n\n    function quorum(uint256 blockNumber)\n        public\n        view\n        override(IGovernor, GovernorVotesQuorumFraction)\n        returns (uint256)\n    {\n        return super.quorum(blockNumber);\n    }\n\n    function state(uint256 proposalId)\n        public\n        view\n        override(Governor, GovernorTimelockControl)\n        returns (ProposalState)\n    {\n        return super.state(proposalId);\n    }\n\n    function propose(address[] memory targets, uint256[] memory values, bytes[] memory calldatas, string memory description)\n        public\n        override(Governor, IGovernor)\n        returns (uint256)\n    {\n        return super.propose(targets, values, calldatas, description);\n    }\n\n    function proposalThreshold()\n        public\n        view\n        override(Governor, GovernorSettings)\n        returns (uint256)\n    {\n        return super.proposalThreshold();\n    }\n\n    function _execute(uint256 proposalId, address[] memory targets, uint256[] memory values, bytes[] memory calldatas, bytes32 descriptionHash)\n        internal\n        override(Governor, GovernorTimelockControl)\n    {\n        super._execute(proposalId, targets, values, calldatas, descriptionHash);\n    }\n\n    function _cancel(address[] memory targets, uint256[] memory values, bytes[] memory calldatas, bytes32 descriptionHash)\n        internal\n        override(Governor, GovernorTimelockControl)\n        returns (uint256)\n    {\n        return super._cancel(targets, values, calldatas, descriptionHash);\n    }\n\n    function _executor()\n        internal\n        view\n        override(Governor, GovernorTimelockControl)\n        returns (address)\n    {\n        return super._executor();\n    }\n\n    function supportsInterface(bytes4 interfaceId)\n        public\n        view\n        override(Governor, GovernorTimelockControl)\n        returns (bool)\n    {\n        return super.supportsInterface(interfaceId);\n    }\n}\n","sourcePath":"/home/fugue/Dev/Truffle/zeppelin/contracts/StateGovernor.sol","compiler":{"name":"solc","version":"0.8.14+commit.80d49f37.Emscripten.clang"},"schemaVersion":"3.4.7","updatedAt":"2022-08-28T19:25:14.797Z","networkType":"ethereum","devdoc":{"errors":{"Empty()":[{"details":"An operation (e.g. {front}) couldn't be completed due to the queue being empty."}]},"kind":"dev","methods":{"COUNTING_MODE()":{"details":"See {IGovernor-COUNTING_MODE}."},"castVote(uint256,uint8)":{"details":"See {IGovernor-castVote}."},"castVoteBySig(uint256,uint8,uint8,bytes32,bytes32)":{"details":"See {IGovernor-castVoteBySig}."},"castVoteWithReason(uint256,uint8,string)":{"details":"See {IGovernor-castVoteWithReason}."},"castVoteWithReasonAndParams(uint256,uint8,string,bytes)":{"details":"See {IGovernor-castVoteWithReasonAndParams}."},"castVoteWithReasonAndParamsBySig(uint256,uint8,string,bytes,uint8,bytes32,bytes32)":{"details":"See {IGovernor-castVoteWithReasonAndParamsBySig}."},"execute(address[],uint256[],bytes[],bytes32)":{"details":"See {IGovernor-execute}."},"getVotes(address,uint256)":{"details":"See {IGovernor-getVotes}."},"getVotesWithParams(address,uint256,bytes)":{"details":"See {IGovernor-getVotesWithParams}."},"hasVoted(uint256,address)":{"details":"See {IGovernor-hasVoted}."},"hashProposal(address[],uint256[],bytes[],bytes32)":{"details":"See {IGovernor-hashProposal}. The proposal id is produced by hashing the RLC encoded `targets` array, the `values` array, the `calldatas` array and the descriptionHash (bytes32 which itself is the keccak256 hash of the description string). This proposal id can be produced from the proposal data which is part of the {ProposalCreated} event. It can even be computed in advance, before the proposal is submitted. Note that the chainId and the governor address are not part of the proposal id computation. Consequently, the same proposal (with same operation and same description) will have the same id if submitted on multiple governors across multiple networks. This also means that in order to execute the same operation twice (on the same governor) the proposer will have to change the description in order to avoid proposal id conflicts."},"name()":{"details":"See {IGovernor-name}."},"onERC1155BatchReceived(address,address,uint256[],uint256[],bytes)":{"details":"See {IERC1155Receiver-onERC1155BatchReceived}."},"onERC1155Received(address,address,uint256,uint256,bytes)":{"details":"See {IERC1155Receiver-onERC1155Received}."},"onERC721Received(address,address,uint256,bytes)":{"details":"See {IERC721Receiver-onERC721Received}."},"proposalDeadline(uint256)":{"details":"See {IGovernor-proposalDeadline}."},"proposalEta(uint256)":{"details":"Public accessor to check the eta of a queued proposal"},"proposalSnapshot(uint256)":{"details":"See {IGovernor-proposalSnapshot}."},"proposalVotes(uint256)":{"details":"Accessor to the internal vote counts."},"queue(address[],uint256[],bytes[],bytes32)":{"details":"Function to queue a proposal to the timelock."},"quorumDenominator()":{"details":"Returns the quorum denominator. Defaults to 100, but may be overridden."},"quorumNumerator()":{"details":"Returns the current quorum numerator. See {quorumDenominator}."},"relay(address,uint256,bytes)":{"details":"Relays a transaction or function call to an arbitrary target. In cases where the governance executor is some contract other than the governor itself, like when using a timelock, this function can be invoked in a governance proposal to recover tokens or Ether that was sent to the governor contract by mistake. Note that if the executor is simply the governor itself, use of `relay` is redundant."},"setProposalThreshold(uint256)":{"details":"Update the proposal threshold. This operation can only be performed through a governance proposal. Emits a {ProposalThresholdSet} event."},"setVotingDelay(uint256)":{"details":"Update the voting delay. This operation can only be performed through a governance proposal. Emits a {VotingDelaySet} event."},"setVotingPeriod(uint256)":{"details":"Update the voting period. This operation can only be performed through a governance proposal. Emits a {VotingPeriodSet} event."},"timelock()":{"details":"Public accessor to check the address of the timelock"},"updateQuorumNumerator(uint256)":{"details":"Changes the quorum numerator. Emits a {QuorumNumeratorUpdated} event. Requirements: - Must be called through a governance proposal. - New numerator must be smaller or equal to the denominator."},"updateTimelock(address)":{"details":"Public endpoint to update the underlying timelock instance. Restricted to the timelock itself, so updates must be proposed, scheduled, and executed through governance proposals. CAUTION: It is not recommended to change the timelock while there are other queued governance proposals."},"version()":{"details":"See {IGovernor-version}."}},"version":1},"userdoc":{"kind":"user","methods":{},"version":1}}